{
  "contractName": "CattleiaERC721",
  "abi": [
    {
      "inputs": [
        {
          "internalType": "string",
          "name": "name_",
          "type": "string"
        },
        {
          "internalType": "string",
          "name": "symbol_",
          "type": "string"
        },
        {
          "internalType": "string",
          "name": "baseURI_",
          "type": "string"
        },
        {
          "internalType": "uint256",
          "name": "supply_",
          "type": "uint256"
        }
      ],
      "stateMutability": "nonpayable",
      "type": "constructor"
    },
    {
      "anonymous": false,
      "inputs": [
        {
          "indexed": true,
          "internalType": "address",
          "name": "owner",
          "type": "address"
        },
        {
          "indexed": true,
          "internalType": "address",
          "name": "approved",
          "type": "address"
        },
        {
          "indexed": true,
          "internalType": "uint256",
          "name": "tokenId",
          "type": "uint256"
        }
      ],
      "name": "Approval",
      "type": "event"
    },
    {
      "anonymous": false,
      "inputs": [
        {
          "indexed": true,
          "internalType": "address",
          "name": "owner",
          "type": "address"
        },
        {
          "indexed": true,
          "internalType": "address",
          "name": "operator",
          "type": "address"
        },
        {
          "indexed": false,
          "internalType": "bool",
          "name": "approved",
          "type": "bool"
        }
      ],
      "name": "ApprovalForAll",
      "type": "event"
    },
    {
      "anonymous": false,
      "inputs": [
        {
          "indexed": false,
          "internalType": "string",
          "name": "_old",
          "type": "string"
        },
        {
          "indexed": false,
          "internalType": "string",
          "name": "_new",
          "type": "string"
        }
      ],
      "name": "BaseURIChanged",
      "type": "event"
    },
    {
      "anonymous": false,
      "inputs": [
        {
          "indexed": false,
          "internalType": "address",
          "name": "account",
          "type": "address"
        }
      ],
      "name": "Paused",
      "type": "event"
    },
    {
      "anonymous": false,
      "inputs": [
        {
          "indexed": true,
          "internalType": "bytes32",
          "name": "role",
          "type": "bytes32"
        },
        {
          "indexed": true,
          "internalType": "bytes32",
          "name": "previousAdminRole",
          "type": "bytes32"
        },
        {
          "indexed": true,
          "internalType": "bytes32",
          "name": "newAdminRole",
          "type": "bytes32"
        }
      ],
      "name": "RoleAdminChanged",
      "type": "event"
    },
    {
      "anonymous": false,
      "inputs": [
        {
          "indexed": true,
          "internalType": "bytes32",
          "name": "role",
          "type": "bytes32"
        },
        {
          "indexed": true,
          "internalType": "address",
          "name": "account",
          "type": "address"
        },
        {
          "indexed": true,
          "internalType": "address",
          "name": "sender",
          "type": "address"
        }
      ],
      "name": "RoleGranted",
      "type": "event"
    },
    {
      "anonymous": false,
      "inputs": [
        {
          "indexed": true,
          "internalType": "bytes32",
          "name": "role",
          "type": "bytes32"
        },
        {
          "indexed": true,
          "internalType": "address",
          "name": "account",
          "type": "address"
        },
        {
          "indexed": true,
          "internalType": "address",
          "name": "sender",
          "type": "address"
        }
      ],
      "name": "RoleRevoked",
      "type": "event"
    },
    {
      "anonymous": false,
      "inputs": [
        {
          "indexed": true,
          "internalType": "address",
          "name": "from",
          "type": "address"
        },
        {
          "indexed": true,
          "internalType": "address",
          "name": "to",
          "type": "address"
        },
        {
          "indexed": true,
          "internalType": "uint256",
          "name": "tokenId",
          "type": "uint256"
        }
      ],
      "name": "Transfer",
      "type": "event"
    },
    {
      "anonymous": false,
      "inputs": [
        {
          "indexed": false,
          "internalType": "address",
          "name": "account",
          "type": "address"
        }
      ],
      "name": "Unpaused",
      "type": "event"
    },
    {
      "inputs": [],
      "name": "DEFAULT_ADMIN_ROLE",
      "outputs": [
        {
          "internalType": "bytes32",
          "name": "",
          "type": "bytes32"
        }
      ],
      "stateMutability": "view",
      "type": "function",
      "constant": true
    },
    {
      "inputs": [],
      "name": "MINTER_ROLE",
      "outputs": [
        {
          "internalType": "bytes32",
          "name": "",
          "type": "bytes32"
        }
      ],
      "stateMutability": "view",
      "type": "function",
      "constant": true
    },
    {
      "inputs": [],
      "name": "PAUSER_ROLE",
      "outputs": [
        {
          "internalType": "bytes32",
          "name": "",
          "type": "bytes32"
        }
      ],
      "stateMutability": "view",
      "type": "function",
      "constant": true
    },
    {
      "inputs": [
        {
          "internalType": "address",
          "name": "to",
          "type": "address"
        },
        {
          "internalType": "uint256",
          "name": "tokenId",
          "type": "uint256"
        }
      ],
      "name": "approve",
      "outputs": [],
      "stateMutability": "nonpayable",
      "type": "function"
    },
    {
      "inputs": [
        {
          "internalType": "address",
          "name": "owner",
          "type": "address"
        }
      ],
      "name": "balanceOf",
      "outputs": [
        {
          "internalType": "uint256",
          "name": "",
          "type": "uint256"
        }
      ],
      "stateMutability": "view",
      "type": "function",
      "constant": true
    },
    {
      "inputs": [
        {
          "internalType": "uint256",
          "name": "tokenId",
          "type": "uint256"
        }
      ],
      "name": "burn",
      "outputs": [],
      "stateMutability": "nonpayable",
      "type": "function"
    },
    {
      "inputs": [
        {
          "internalType": "uint256",
          "name": "tokenId",
          "type": "uint256"
        }
      ],
      "name": "getApproved",
      "outputs": [
        {
          "internalType": "address",
          "name": "",
          "type": "address"
        }
      ],
      "stateMutability": "view",
      "type": "function",
      "constant": true
    },
    {
      "inputs": [
        {
          "internalType": "bytes32",
          "name": "role",
          "type": "bytes32"
        }
      ],
      "name": "getRoleAdmin",
      "outputs": [
        {
          "internalType": "bytes32",
          "name": "",
          "type": "bytes32"
        }
      ],
      "stateMutability": "view",
      "type": "function",
      "constant": true
    },
    {
      "inputs": [
        {
          "internalType": "bytes32",
          "name": "role",
          "type": "bytes32"
        },
        {
          "internalType": "uint256",
          "name": "index",
          "type": "uint256"
        }
      ],
      "name": "getRoleMember",
      "outputs": [
        {
          "internalType": "address",
          "name": "",
          "type": "address"
        }
      ],
      "stateMutability": "view",
      "type": "function",
      "constant": true
    },
    {
      "inputs": [
        {
          "internalType": "bytes32",
          "name": "role",
          "type": "bytes32"
        }
      ],
      "name": "getRoleMemberCount",
      "outputs": [
        {
          "internalType": "uint256",
          "name": "",
          "type": "uint256"
        }
      ],
      "stateMutability": "view",
      "type": "function",
      "constant": true
    },
    {
      "inputs": [
        {
          "internalType": "bytes32",
          "name": "role",
          "type": "bytes32"
        },
        {
          "internalType": "address",
          "name": "account",
          "type": "address"
        }
      ],
      "name": "grantRole",
      "outputs": [],
      "stateMutability": "nonpayable",
      "type": "function"
    },
    {
      "inputs": [
        {
          "internalType": "bytes32",
          "name": "role",
          "type": "bytes32"
        },
        {
          "internalType": "address",
          "name": "account",
          "type": "address"
        }
      ],
      "name": "hasRole",
      "outputs": [
        {
          "internalType": "bool",
          "name": "",
          "type": "bool"
        }
      ],
      "stateMutability": "view",
      "type": "function",
      "constant": true
    },
    {
      "inputs": [
        {
          "internalType": "address",
          "name": "owner",
          "type": "address"
        },
        {
          "internalType": "address",
          "name": "operator",
          "type": "address"
        }
      ],
      "name": "isApprovedForAll",
      "outputs": [
        {
          "internalType": "bool",
          "name": "",
          "type": "bool"
        }
      ],
      "stateMutability": "view",
      "type": "function",
      "constant": true
    },
    {
      "inputs": [],
      "name": "name",
      "outputs": [
        {
          "internalType": "string",
          "name": "",
          "type": "string"
        }
      ],
      "stateMutability": "view",
      "type": "function",
      "constant": true
    },
    {
      "inputs": [
        {
          "internalType": "uint256",
          "name": "tokenId",
          "type": "uint256"
        }
      ],
      "name": "ownerOf",
      "outputs": [
        {
          "internalType": "address",
          "name": "",
          "type": "address"
        }
      ],
      "stateMutability": "view",
      "type": "function",
      "constant": true
    },
    {
      "inputs": [],
      "name": "pause",
      "outputs": [],
      "stateMutability": "nonpayable",
      "type": "function"
    },
    {
      "inputs": [],
      "name": "paused",
      "outputs": [
        {
          "internalType": "bool",
          "name": "",
          "type": "bool"
        }
      ],
      "stateMutability": "view",
      "type": "function",
      "constant": true
    },
    {
      "inputs": [
        {
          "internalType": "bytes32",
          "name": "role",
          "type": "bytes32"
        },
        {
          "internalType": "address",
          "name": "account",
          "type": "address"
        }
      ],
      "name": "renounceRole",
      "outputs": [],
      "stateMutability": "nonpayable",
      "type": "function"
    },
    {
      "inputs": [
        {
          "internalType": "bytes32",
          "name": "role",
          "type": "bytes32"
        },
        {
          "internalType": "address",
          "name": "account",
          "type": "address"
        }
      ],
      "name": "revokeRole",
      "outputs": [],
      "stateMutability": "nonpayable",
      "type": "function"
    },
    {
      "inputs": [
        {
          "internalType": "address",
          "name": "from",
          "type": "address"
        },
        {
          "internalType": "address",
          "name": "to",
          "type": "address"
        },
        {
          "internalType": "uint256",
          "name": "tokenId",
          "type": "uint256"
        }
      ],
      "name": "safeTransferFrom",
      "outputs": [],
      "stateMutability": "nonpayable",
      "type": "function"
    },
    {
      "inputs": [
        {
          "internalType": "address",
          "name": "from",
          "type": "address"
        },
        {
          "internalType": "address",
          "name": "to",
          "type": "address"
        },
        {
          "internalType": "uint256",
          "name": "tokenId",
          "type": "uint256"
        },
        {
          "internalType": "bytes",
          "name": "_data",
          "type": "bytes"
        }
      ],
      "name": "safeTransferFrom",
      "outputs": [],
      "stateMutability": "nonpayable",
      "type": "function"
    },
    {
      "inputs": [
        {
          "internalType": "address",
          "name": "operator",
          "type": "address"
        },
        {
          "internalType": "bool",
          "name": "approved",
          "type": "bool"
        }
      ],
      "name": "setApprovalForAll",
      "outputs": [],
      "stateMutability": "nonpayable",
      "type": "function"
    },
    {
      "inputs": [
        {
          "internalType": "bytes4",
          "name": "interfaceId",
          "type": "bytes4"
        }
      ],
      "name": "supportsInterface",
      "outputs": [
        {
          "internalType": "bool",
          "name": "",
          "type": "bool"
        }
      ],
      "stateMutability": "view",
      "type": "function",
      "constant": true
    },
    {
      "inputs": [],
      "name": "symbol",
      "outputs": [
        {
          "internalType": "string",
          "name": "",
          "type": "string"
        }
      ],
      "stateMutability": "view",
      "type": "function",
      "constant": true
    },
    {
      "inputs": [
        {
          "internalType": "uint256",
          "name": "index",
          "type": "uint256"
        }
      ],
      "name": "tokenByIndex",
      "outputs": [
        {
          "internalType": "uint256",
          "name": "",
          "type": "uint256"
        }
      ],
      "stateMutability": "view",
      "type": "function",
      "constant": true
    },
    {
      "inputs": [
        {
          "internalType": "address",
          "name": "owner",
          "type": "address"
        },
        {
          "internalType": "uint256",
          "name": "index",
          "type": "uint256"
        }
      ],
      "name": "tokenOfOwnerByIndex",
      "outputs": [
        {
          "internalType": "uint256",
          "name": "",
          "type": "uint256"
        }
      ],
      "stateMutability": "view",
      "type": "function",
      "constant": true
    },
    {
      "inputs": [
        {
          "internalType": "uint256",
          "name": "tokenId",
          "type": "uint256"
        }
      ],
      "name": "tokenURI",
      "outputs": [
        {
          "internalType": "string",
          "name": "",
          "type": "string"
        }
      ],
      "stateMutability": "view",
      "type": "function",
      "constant": true
    },
    {
      "inputs": [],
      "name": "totalSupply",
      "outputs": [
        {
          "internalType": "uint256",
          "name": "",
          "type": "uint256"
        }
      ],
      "stateMutability": "view",
      "type": "function",
      "constant": true
    },
    {
      "inputs": [
        {
          "internalType": "address",
          "name": "from",
          "type": "address"
        },
        {
          "internalType": "address",
          "name": "to",
          "type": "address"
        },
        {
          "internalType": "uint256",
          "name": "tokenId",
          "type": "uint256"
        }
      ],
      "name": "transferFrom",
      "outputs": [],
      "stateMutability": "nonpayable",
      "type": "function"
    },
    {
      "inputs": [],
      "name": "unpause",
      "outputs": [],
      "stateMutability": "nonpayable",
      "type": "function"
    },
    {
      "inputs": [
        {
          "internalType": "string",
          "name": "_newURI",
          "type": "string"
        }
      ],
      "name": "changeBaseURI",
      "outputs": [],
      "stateMutability": "nonpayable",
      "type": "function"
    },
    {
      "inputs": [],
      "name": "baseURI",
      "outputs": [
        {
          "internalType": "string",
          "name": "",
          "type": "string"
        }
      ],
      "stateMutability": "view",
      "type": "function",
      "constant": true
    },
    {
      "inputs": [
        {
          "internalType": "address",
          "name": "_owner",
          "type": "address"
        }
      ],
      "name": "tokensOf",
      "outputs": [
        {
          "internalType": "uint256[]",
          "name": "",
          "type": "uint256[]"
        }
      ],
      "stateMutability": "view",
      "type": "function",
      "constant": true
    },
    {
      "inputs": [
        {
          "internalType": "address",
          "name": "_to",
          "type": "address"
        },
        {
          "internalType": "uint256",
          "name": "_tokenId",
          "type": "uint256"
        }
      ],
      "name": "transfer",
      "outputs": [],
      "stateMutability": "nonpayable",
      "type": "function"
    },
    {
      "inputs": [
        {
          "internalType": "address",
          "name": "_to",
          "type": "address"
        }
      ],
      "name": "mint",
      "outputs": [],
      "stateMutability": "nonpayable",
      "type": "function"
    }
  ],
  "bytecode": "0x60806040523480156200001157600080fd5b50604051620039dc380380620039dc83398101604081905262000034916200099f565b83838382828160029080519060200190620000519291906200084e565b508051620000679060039060208401906200084e565b5050600c805460ff191690555080516200008990600e9060208401906200084e565b50620000a060006200009a6200013d565b62000141565b620000be600080516020620039bc8339815191526200009a6200013d565b620000ed7f65d7a28e3265b37a6474929f336521b332c1681b933f6cb9f3376673440d862a6200009a6200013d565b50508251620001059150600f9060208501906200084e565b5060005b8181101562000132576200011d3362000184565b80620001298162000c04565b91505062000109565b505050505062000c4e565b3390565b620001588282620001fc60201b62000ca41760201c565b60008281526001602090815260409091206200017f91839062000cae6200020c821b17901c565b505050565b6200019a816200022c60201b62000cc31760201c565b6001600160a01b038116600090815260116020908152604090912090620001cd9060109062000d28620002b1821b17901c565b815460018101835560009283526020928390200155620001f99060109062000d2c620002b5821b17901c565b50565b620002088282620002be565b5050565b600062000223836001600160a01b03841662000348565b90505b92915050565b62000250600080516020620039bc8339815191526200024a6200013d565b62000397565b620002785760405162461bcd60e51b81526004016200026f9062000b35565b60405180910390fd5b6200029a8162000294600d620002b160201b62000d281760201c565b620003c0565b620001f9600d620002b560201b62000d2c1760201c565b5490565b80546001019055565b620002ca828262000397565b62000208576000828152602081815260408083206001600160a01b03851684529091529020805460ff19166001179055620003046200013d565b6001600160a01b0316816001600160a01b0316837f2f8788117e7eff1d82e926ec794901d17c78024a50270940304540a733656f0d60405160405180910390a45050565b6000620003568383620004ab565b6200038e5750815460018181018455600084815260208082209093018490558454848252828601909352604090209190915562000226565b50600062000226565b6000918252602082815260408084206001600160a01b0393909316845291905290205460ff1690565b6001600160a01b038216620003e95760405162461bcd60e51b81526004016200026f9062000b00565b620003f481620004c3565b15620004145760405162461bcd60e51b81526004016200026f9062000a7f565b6200042260008383620004e0565b6001600160a01b03821660009081526005602052604081208054600192906200044d90849062000b92565b909155505060008181526004602052604080822080546001600160a01b0319166001600160a01b03861690811790915590518392907fddf252ad1be2c89b69c2b068fc378daa952ba7f163c4a11628f55a4df523b3ef908290a45050565b60009081526001919091016020526040902054151590565b6000908152600460205260409020546001600160a01b0316151590565b6200017f838383620004f860201b62000d351760201c565b620005108383836200053a60201b62000d651760201c565b6200051a620005de565b156200017f5760405162461bcd60e51b81526004016200026f9062000a34565b620005528383836200017f60201b620006111760201c565b6001600160a01b03831662000572576200056c81620005e7565b62000598565b816001600160a01b0316836001600160a01b03161462000598576200059883826200062b565b6001600160a01b038216620005b857620005b281620006d8565b6200017f565b826001600160a01b0316826001600160a01b0316146200017f576200017f8282620007b6565b600c5460ff1690565b600a80546000838152600b60205260408120829055600182018355919091527fc65a7bb8d6351c1cf70c95a316cc6a92839c986682d98bc35f958f4883f9d2a80155565b6000600162000645846200080760201b620009661760201c565b62000651919062000bad565b600083815260096020526040902054909150808214620006a5576001600160a01b03841660009081526008602090815260408083208584528252808320548484528184208190558352600990915290208190555b5060009182526009602090815260408084208490556001600160a01b039094168352600881528383209183525290812055565b600a54600090620006ec9060019062000bad565b6000838152600b6020526040812054600a80549394509092849081106200072357634e487b7160e01b600052603260045260246000fd5b9060005260206000200154905080600a83815481106200075357634e487b7160e01b600052603260045260246000fd5b6000918252602080832090910192909255828152600b9091526040808220849055858252812055600a8054806200079a57634e487b7160e01b600052603160045260246000fd5b6001900381819060005260206000200160009055905550505050565b6000620007ce836200080760201b620009661760201c565b6001600160a01b039093166000908152600860209081526040808320868452825280832085905593825260099052919091209190915550565b60006001600160a01b038216620008325760405162461bcd60e51b81526004016200026f9062000ab6565b506001600160a01b031660009081526005602052604090205490565b8280546200085c9062000bc7565b90600052602060002090601f016020900481019282620008805760008555620008cb565b82601f106200089b57805160ff1916838001178555620008cb565b82800160010185558215620008cb579182015b82811115620008cb578251825591602001919060010190620008ae565b50620008d9929150620008dd565b5090565b5b80821115620008d95760008155600101620008de565b600082601f83011262000905578081fd5b81516001600160401b038082111562000922576200092262000c38565b6040516020601f8401601f19168201810183811183821017156200094a576200094a62000c38565b604052838252858401810187101562000961578485fd5b8492505b8383101562000984578583018101518284018201529182019162000965565b838311156200099557848185840101525b5095945050505050565b60008060008060808587031215620009b5578384fd5b84516001600160401b0380821115620009cc578586fd5b620009da88838901620008f4565b95506020870151915080821115620009f0578485fd5b620009fe88838901620008f4565b9450604087015191508082111562000a14578384fd5b5062000a2387828801620008f4565b606096909601519497939650505050565b6020808252602b908201527f4552433732315061757361626c653a20746f6b656e207472616e73666572207760408201526a1a1a5b19481c185d5cd95960aa1b606082015260800190565b6020808252601c908201527f4552433732313a20746f6b656e20616c7265616479206d696e74656400000000604082015260600190565b6020808252602a908201527f4552433732313a2062616c616e636520717565727920666f7220746865207a65604082015269726f206164647265737360b01b606082015260800190565b6020808252818101527f4552433732313a206d696e7420746f20746865207a65726f2061646472657373604082015260600190565b6020808252603d908201527f4552433732315072657365744d696e7465725061757365724175746f49643a2060408201527f6d7573742068617665206d696e74657220726f6c6520746f206d696e74000000606082015260800190565b6000821982111562000ba85762000ba862000c22565b500190565b60008282101562000bc25762000bc262000c22565b500390565b60028104600182168062000bdc57607f821691505b6020821081141562000bfe57634e487b7160e01b600052602260045260246000fd5b50919050565b600060001982141562000c1b5762000c1b62000c22565b5060010190565b634e487b7160e01b600052601160045260246000fd5b634e487b7160e01b600052604160045260246000fd5b612d5e8062000c5e6000396000f3fe608060405234801561001057600080fd5b50600436106102115760003560e01c80636352211e11610125578063a22cb465116100ad578063ca15c8731161007c578063ca15c87314610444578063d539139314610457578063d547741f1461045f578063e63ab1e914610472578063e985e9c51461047a57610211565b8063a22cb465146103f8578063a9059cbb1461040b578063b88d4fde1461041e578063c87b56dd1461043157610211565b80638456cb59116100f45780638456cb59146103ba5780639010d07c146103c257806391d14854146103d557806395d89b41146103e8578063a217fddf146103f057610211565b80636352211e146103795780636a6278421461038c5780636c0360eb1461039f57806370a08231146103a757610211565b80632f745c59116101a857806342842e0e1161017757806342842e0e1461031857806342966c681461032b5780634f6ccce71461033e5780635a3f2672146103515780635c975abb1461037157610211565b80632f745c59146102d757806336568abe146102ea57806339a0c6f9146102fd5780633f4ba83a1461031057610211565b806318160ddd116101e457806318160ddd1461028957806323b872dd1461029e578063248a9ca3146102b15780632f2ff15d146102c457610211565b806301ffc9a71461021657806306fdde031461023f578063081812fc14610254578063095ea7b314610274575b600080fd5b6102296102243660046121dd565b61048d565b60405161023691906123c0565b60405180910390f35b6102476104a0565b60405161023691906123d4565b610267610262366004612182565b610532565b604051610236919061232b565b610287610282366004612159565b61057e565b005b610291610616565b60405161023691906123cb565b6102876102ac36600461206b565b61061c565b6102916102bf366004612182565b610654565b6102876102d236600461219a565b610669565b6102916102e5366004612159565b61068b565b6102876102f836600461219a565b6106e0565b61028761030b366004612215565b610702565b610287610767565b61028761032636600461206b565b6107b9565b610287610339366004612182565b6107d4565b61029161034c366004612182565b610807565b61036461035f36600461201f565b610862565b604051610236919061237c565b6102296108ce565b610267610387366004612182565b6108d7565b61028761039a36600461201f565b61090c565b610247610957565b6102916103b536600461201f565b610966565b6102876109aa565b6102676103d03660046121bc565b6109fa565b6102296103e336600461219a565b610a19565b610247610a42565b610291610a51565b61028761040636600461211f565b610a56565b610287610419366004612159565b610b24565b61028761042c3660046120a6565b610b4c565b61024761043f366004612182565b610b8b565b610291610452366004612182565b610c0d565b610291610c24565b61028761046d36600461219a565b610c48565b610291610c52565b610229610488366004612039565b610c76565b600061049882610dee565b90505b919050565b6060600280546104af90612c66565b80601f01602080910402602001604051908101604052809291908181526020018280546104db90612c66565b80156105285780601f106104fd57610100808354040283529160200191610528565b820191906000526020600020905b81548152906001019060200180831161050b57829003601f168201915b5050505050905090565b600061053d82610e13565b6105625760405162461bcd60e51b815260040161055990612899565b60405180910390fd5b506000908152600660205260409020546001600160a01b031690565b6000610589826108d7565b9050806001600160a01b0316836001600160a01b031614156105bd5760405162461bcd60e51b81526004016105599061297d565b806001600160a01b03166105cf610e30565b6001600160a01b031614806105eb57506105eb81610488610e30565b6106075760405162461bcd60e51b815260040161055990612774565b6106118383610e34565b505050565b600a5490565b61062d610627610e30565b82610ea2565b6106495760405162461bcd60e51b8152600401610559906129be565b610611838383610f27565b60009081526020819052604090206001015490565b61067382826110dc565b60008281526001602052604090206106119082610cae565b600061069683610966565b82106106b45760405162461bcd60e51b815260040161055990612552565b506001600160a01b03821660009081526008602090815260408083208484529091529020545b92915050565b6106ea8282611100565b60008281526001602052604090206106119082611142565b61070d600033610a19565b61071657600080fd5b7fc41b7cb64e5be01af4afc2641afc861432136270f4206b7773f229b658b96699600f826040516107489291906123e7565b60405180910390a1805161076390600f906020840190611eff565b5050565b6107937f65d7a28e3265b37a6474929f336521b332c1681b933f6cb9f3376673440d862a6103e3610e30565b6107af5760405162461bcd60e51b815260040161055990612b08565b6107b7611157565b565b61061183838360405180602001604052806000815250610b4c565b6107df610627610e30565b6107fb5760405162461bcd60e51b815260040161055990612ab8565b610804816111c5565b50565b6000610811610616565b821061082f5760405162461bcd60e51b815260040161055990612a0f565b600a828154811061085057634e487b7160e01b600052603260045260246000fd5b90600052602060002001549050919050565b6001600160a01b0381166000908152601160209081526040918290208054835181840281018401909452808452606093928301828280156108c257602002820191906000526020600020905b8154815260200190600101908083116108ae575b50505050509050919050565b600c5460ff1690565b6000818152600460205260408120546001600160a01b0316806104985760405162461bcd60e51b81526004016105599061281b565b61091581610cc3565b6001600160a01b03811660009081526011602052604090206109376010610d28565b815460018101835560009283526020909220909101556108046010610d2c565b606061096161126c565b905090565b60006001600160a01b03821661098e5760405162461bcd60e51b8152600401610559906127d1565b506001600160a01b031660009081526005602052604090205490565b6109d67f65d7a28e3265b37a6474929f336521b332c1681b933f6cb9f3376673440d862a6103e3610e30565b6109f25760405162461bcd60e51b815260040161055990612626565b6107b761127b565b6000828152600160205260408120610a1290836112d6565b9392505050565b6000918252602082815260408084206001600160a01b0393909316845291905290205460ff1690565b6060600380546104af90612c66565b600081565b610a5e610e30565b6001600160a01b0316826001600160a01b03161415610a8f5760405162461bcd60e51b8152600401610559906126c7565b8060076000610a9c610e30565b6001600160a01b03908116825260208083019390935260409182016000908120918716808252919093529120805460ff191692151592909217909155610ae0610e30565b6001600160a01b03167f17307eab39ab6107e8899845ad3d59bd9653f200f220920489ca2b5937696c3183604051610b1891906123c0565b60405180910390a35050565b33610b2e826108d7565b6001600160a01b031614610b4157600080fd5b610763338383610f27565b610b5d610b57610e30565b83610ea2565b610b795760405162461bcd60e51b8152600401610559906129be565b610b85848484846112e2565b50505050565b6060610b9682610e13565b610bb25760405162461bcd60e51b81526004016105599061292e565b6000610bbc61126c565b90506000815111610bdc5760405180602001604052806000815250610a12565b80610be684611315565b604051602001610bf7929190612287565b6040516020818303038152906040529392505050565b600081815260016020526040812061049890611430565b7f9f2df0fed2c77648de5860a4cc508cd0818c85b8b8a1ab4ceeef8d981c8956a681565b6106ea828261143b565b7f65d7a28e3265b37a6474929f336521b332c1681b933f6cb9f3376673440d862a81565b6001600160a01b03918216600090815260076020908152604080832093909416825291909152205460ff1690565b610763828261145a565b6000610a12836001600160a01b0384166114df565b610cef7f9f2df0fed2c77648de5860a4cc508cd0818c85b8b8a1ab4ceeef8d981c8956a66103e3610e30565b610d0b5760405162461bcd60e51b815260040161055990612a5b565b610d1e81610d19600d610d28565b611529565b610804600d610d2c565b5490565b80546001019055565b610d40838383610d65565b610d486108ce565b156106115760405162461bcd60e51b8152600401610559906124d9565b610d70838383610611565b6001600160a01b038316610d8c57610d8781611608565b610daf565b816001600160a01b0316836001600160a01b031614610daf57610daf838261164c565b6001600160a01b038216610dcb57610dc6816116e9565b610611565b826001600160a01b0316826001600160a01b0316146106115761061182826117c2565b60006001600160e01b0319821663780e9d6360e01b1480610498575061049882611806565b6000908152600460205260409020546001600160a01b0316151590565b3390565b600081815260066020526040902080546001600160a01b0319166001600160a01b0384169081179091558190610e69826108d7565b6001600160a01b03167f8c5be1e5ebec7d5bd14f71427d1e84f3dd0314c0f7b2291e5b200ac8c7c3b92560405160405180910390a45050565b6000610ead82610e13565b610ec95760405162461bcd60e51b8152600401610559906126fe565b6000610ed4836108d7565b9050806001600160a01b0316846001600160a01b03161480610f0f5750836001600160a01b0316610f0484610532565b6001600160a01b0316145b80610f1f5750610f1f8185610c76565b949350505050565b610f32838383611846565b60005b6001600160a01b0384166000908152601160205260409020805483919083908110610f7057634e487b7160e01b600052603260045260246000fd5b906000526020600020015414610f925780610f8a81612ca1565b915050610f35565b6001600160a01b038416600090815260116020526040902054610fb790600190612c0c565b811015611061576001600160a01b0384166000908152601160205260409020610fe1826001612bc1565b81548110610fff57634e487b7160e01b600052603260045260246000fd5b60009182526020808320909101546001600160a01b03871683526011909152604090912080548390811061104357634e487b7160e01b600052603260045260246000fd5b6000918252602090912001558061105981612ca1565b915050610f92565b6001600160a01b038416600090815260116020526040902080548061109657634e487b7160e01b600052603160045260246000fd5b6000828152602080822083016000199081018390559092019092556001600160a01b03909416815260118452604081208054600181018255908252939020909201555050565b6110e582610654565b6110f6816110f1610e30565b611973565b610611838361145a565b611108610e30565b6001600160a01b0316816001600160a01b0316146111385760405162461bcd60e51b815260040161055990612b66565b61076382826119d7565b6000610a12836001600160a01b038416611a5a565b61115f6108ce565b61117b5760405162461bcd60e51b815260040161055990612524565b600c805460ff191690557f5db9ee0a495bf2e6ff9c91a7834c1ba4fdd244a5e8aa4e537bd38aeae4b073aa6111ae610e30565b6040516111bb919061232b565b60405180910390a1565b60006111d0826108d7565b90506111de81600084611b77565b6111e9600083610e34565b6001600160a01b0381166000908152600560205260408120805460019290611212908490612c0c565b909155505060008281526004602052604080822080546001600160a01b0319169055518391906001600160a01b038416907fddf252ad1be2c89b69c2b068fc378daa952ba7f163c4a11628f55a4df523b3ef908390a45050565b6060600f80546104af90612c66565b6112836108ce565b156112a05760405162461bcd60e51b81526004016105599061274a565b600c805460ff191660011790557f62e78cea01bee320cd4e420270b5ea74000d11b0c9f74754ebdbfc544b05a2586111ae610e30565b6000610a128383611b82565b6112ed848484610f27565b6112f984848484611bba565b610b855760405162461bcd60e51b81526004016105599061259d565b60608161133a57506040805180820190915260018152600360fc1b602082015261049b565b8160005b8115611364578061134e81612ca1565b915061135d9050600a83612bd9565b915061133e565b60008167ffffffffffffffff81111561138d57634e487b7160e01b600052604160045260246000fd5b6040519080825280601f01601f1916602001820160405280156113b7576020820181803683370190505b5090505b8415610f1f576113cc600183612c0c565b91506113d9600a86612cbc565b6113e4906030612bc1565b60f81b81838151811061140757634e487b7160e01b600052603260045260246000fd5b60200101906001600160f81b031916908160001a905350611429600a86612bd9565b94506113bb565b600061049882610d28565b61144482610654565b611450816110f1610e30565b61061183836119d7565b6114648282610a19565b610763576000828152602081815260408083206001600160a01b03851684529091529020805460ff1916600117905561149b610e30565b6001600160a01b0316816001600160a01b0316837f2f8788117e7eff1d82e926ec794901d17c78024a50270940304540a733656f0d60405160405180910390a45050565b60006114eb8383611cd5565b611521575081546001818101845560008481526020808220909301849055845484825282860190935260409020919091556106da565b5060006106da565b6001600160a01b03821661154f5760405162461bcd60e51b815260040161055990612864565b61155881610e13565b156115755760405162461bcd60e51b8152600401610559906125ef565b61158160008383611b77565b6001600160a01b03821660009081526005602052604081208054600192906115aa908490612bc1565b909155505060008181526004602052604080822080546001600160a01b0319166001600160a01b03861690811790915590518392907fddf252ad1be2c89b69c2b068fc378daa952ba7f163c4a11628f55a4df523b3ef908290a45050565b600a80546000838152600b60205260408120829055600182018355919091527fc65a7bb8d6351c1cf70c95a316cc6a92839c986682d98bc35f958f4883f9d2a80155565b6000600161165984610966565b6116639190612c0c565b6000838152600960205260409020549091508082146116b6576001600160a01b03841660009081526008602090815260408083208584528252808320548484528184208190558352600990915290208190555b5060009182526009602090815260408084208490556001600160a01b039094168352600881528383209183525290812055565b600a546000906116fb90600190612c0c565b6000838152600b6020526040812054600a805493945090928490811061173157634e487b7160e01b600052603260045260246000fd5b9060005260206000200154905080600a838154811061176057634e487b7160e01b600052603260045260246000fd5b6000918252602080832090910192909255828152600b9091526040808220849055858252812055600a8054806117a657634e487b7160e01b600052603160045260246000fd5b6001900381819060005260206000200160009055905550505050565b60006117cd83610966565b6001600160a01b039093166000908152600860209081526040808320868452825280832085905593825260099052919091209190915550565b60006001600160e01b031982166380ac58cd60e01b148061183757506001600160e01b03198216635b5e139f60e01b145b80610498575061049882611ced565b826001600160a01b0316611859826108d7565b6001600160a01b03161461187f5760405162461bcd60e51b8152600401610559906128e5565b6001600160a01b0382166118a55760405162461bcd60e51b815260040161055990612683565b6118b0838383611b77565b6118bb600082610e34565b6001600160a01b03831660009081526005602052604081208054600192906118e4908490612c0c565b90915550506001600160a01b0382166000908152600560205260408120805460019290611912908490612bc1565b909155505060008181526004602052604080822080546001600160a01b0319166001600160a01b0386811691821790925591518493918716917fddf252ad1be2c89b69c2b068fc378daa952ba7f163c4a11628f55a4df523b3ef91a4505050565b61197d8282610a19565b61076357611995816001600160a01b03166014611d12565b6119a0836020611d12565b6040516020016119b19291906122b6565b60408051601f198184030181529082905262461bcd60e51b8252610559916004016123d4565b6119e18282610a19565b15610763576000828152602081815260408083206001600160a01b03851684529091529020805460ff19169055611a16610e30565b6001600160a01b0316816001600160a01b0316837ff6391f5c32d9c69d2a47ea670b442974b53935d1edc7fd64eb21e047a839171b60405160405180910390a45050565b60008181526001830160205260408120548015611b6d576000611a7e600183612c0c565b8554909150600090611a9290600190612c0c565b9050818114611b13576000866000018281548110611ac057634e487b7160e01b600052603260045260246000fd5b9060005260206000200154905080876000018481548110611af157634e487b7160e01b600052603260045260246000fd5b6000918252602080832090910192909255918252600188019052604090208390555b8554869080611b3257634e487b7160e01b600052603160045260246000fd5b6001900381819060005260206000200160009055905585600101600086815260200190815260200160002060009055600193505050506106da565b60009150506106da565b610611838383610d35565b6000826000018281548110611ba757634e487b7160e01b600052603260045260246000fd5b9060005260206000200154905092915050565b6000611bce846001600160a01b0316611ec4565b15611cca57836001600160a01b031663150b7a02611bea610e30565b8786866040518563ffffffff1660e01b8152600401611c0c949392919061233f565b602060405180830381600087803b158015611c2657600080fd5b505af1925050508015611c56575060408051601f3d908101601f19168201909252611c53918101906121f9565b60015b611cb0573d808015611c84576040519150601f19603f3d011682016040523d82523d6000602084013e611c89565b606091505b508051611ca85760405162461bcd60e51b81526004016105599061259d565b805181602001fd5b6001600160e01b031916630a85bd0160e11b149050610f1f565b506001949350505050565b60009081526001919091016020526040902054151590565b60006001600160e01b03198216635a05180f60e01b1480610498575061049882611eca565b60606000611d21836002612bed565b611d2c906002612bc1565b67ffffffffffffffff811115611d5257634e487b7160e01b600052604160045260246000fd5b6040519080825280601f01601f191660200182016040528015611d7c576020820181803683370190505b509050600360fc1b81600081518110611da557634e487b7160e01b600052603260045260246000fd5b60200101906001600160f81b031916908160001a905350600f60fb1b81600181518110611de257634e487b7160e01b600052603260045260246000fd5b60200101906001600160f81b031916908160001a9053506000611e06846002612bed565b611e11906001612bc1565b90505b6001811115611ea5576f181899199a1a9b1b9c1cb0b131b232b360811b85600f1660108110611e5357634e487b7160e01b600052603260045260246000fd5b1a60f81b828281518110611e7757634e487b7160e01b600052603260045260246000fd5b60200101906001600160f81b031916908160001a90535060049490941c93611e9e81612c4f565b9050611e14565b508315610a125760405162461bcd60e51b8152600401610559906124a4565b3b151590565b60006001600160e01b03198216637965db0b60e01b148061049857506301ffc9a760e01b6001600160e01b0319831614610498565b828054611f0b90612c66565b90600052602060002090601f016020900481019282611f2d5760008555611f73565b82601f10611f4657805160ff1916838001178555611f73565b82800160010185558215611f73579182015b82811115611f73578251825591602001919060010190611f58565b50611f7f929150611f83565b5090565b5b80821115611f7f5760008155600101611f84565b600067ffffffffffffffff80841115611fb357611fb3612cfc565b604051601f8501601f191681016020018281118282101715611fd757611fd7612cfc565b604052848152915081838501861015611fef57600080fd5b8484602083013760006020868301015250509392505050565b80356001600160a01b038116811461049b57600080fd5b600060208284031215612030578081fd5b610a1282612008565b6000806040838503121561204b578081fd5b61205483612008565b915061206260208401612008565b90509250929050565b60008060006060848603121561207f578081fd5b61208884612008565b925061209660208501612008565b9150604084013590509250925092565b600080600080608085870312156120bb578081fd5b6120c485612008565b93506120d260208601612008565b925060408501359150606085013567ffffffffffffffff8111156120f4578182fd5b8501601f81018713612104578182fd5b61211387823560208401611f98565b91505092959194509250565b60008060408385031215612131578182fd5b61213a83612008565b91506020830135801515811461214e578182fd5b809150509250929050565b6000806040838503121561216b578182fd5b61217483612008565b946020939093013593505050565b600060208284031215612193578081fd5b5035919050565b600080604083850312156121ac578182fd5b8235915061206260208401612008565b600080604083850312156121ce578182fd5b50508035926020909101359150565b6000602082840312156121ee578081fd5b8135610a1281612d12565b60006020828403121561220a578081fd5b8151610a1281612d12565b600060208284031215612226578081fd5b813567ffffffffffffffff81111561223c578182fd5b8201601f8101841361224c578182fd5b610f1f84823560208401611f98565b60008151808452612273816020860160208601612c23565b601f01601f19169290920160200192915050565b60008351612299818460208801612c23565b8351908301906122ad818360208801612c23565b01949350505050565b60007f416363657373436f6e74726f6c3a206163636f756e7420000000000000000000825283516122ee816017850160208801612c23565b7001034b99036b4b9b9b4b733903937b6329607d1b601791840191820152835161231f816028840160208801612c23565b01602801949350505050565b6001600160a01b0391909116815260200190565b6001600160a01b03858116825284166020820152604081018390526080606082018190526000906123729083018461225b565b9695505050505050565b6020808252825182820181905260009190848201906040850190845b818110156123b457835183529284019291840191600101612398565b50909695505050505050565b901515815260200190565b90815260200190565b600060208252610a12602083018461225b565b60408152825460009081906002810460018083168061240757607f831692505b602080841082141561242757634e487b7160e01b87526022600452602487fd5b6124348460408a016123cb565b828015612448576001811461245957612483565b60ff19871682528282019750612483565b6124628c612bb5565b895b8781101561247d57815484820152908601908401612464565b83019850505b505087860381890152505050505061249b818561225b565b95945050505050565b6020808252818101527f537472696e67733a20686578206c656e67746820696e73756666696369656e74604082015260600190565b6020808252602b908201527f4552433732315061757361626c653a20746f6b656e207472616e73666572207760408201526a1a1a5b19481c185d5cd95960aa1b606082015260800190565b60208082526014908201527314185d5cd8589b194e881b9bdd081c185d5cd95960621b604082015260600190565b6020808252602b908201527f455243373231456e756d657261626c653a206f776e657220696e646578206f7560408201526a74206f6620626f756e647360a81b606082015260800190565b60208082526032908201527f4552433732313a207472616e7366657220746f206e6f6e20455243373231526560408201527131b2b4bb32b91034b6b83632b6b2b73a32b960711b606082015260800190565b6020808252601c908201527f4552433732313a20746f6b656e20616c7265616479206d696e74656400000000604082015260600190565b6020808252603e908201527f4552433732315072657365744d696e7465725061757365724175746f49643a2060408201527f6d75737420686176652070617573657220726f6c6520746f2070617573650000606082015260800190565b60208082526024908201527f4552433732313a207472616e7366657220746f20746865207a65726f206164646040820152637265737360e01b606082015260800190565b60208082526019908201527f4552433732313a20617070726f766520746f2063616c6c657200000000000000604082015260600190565b6020808252602c908201527f4552433732313a206f70657261746f7220717565727920666f72206e6f6e657860408201526b34b9ba32b73a103a37b5b2b760a11b606082015260800190565b60208082526010908201526f14185d5cd8589b194e881c185d5cd95960821b604082015260600190565b60208082526038908201527f4552433732313a20617070726f76652063616c6c6572206973206e6f74206f7760408201527f6e6572206e6f7220617070726f76656420666f7220616c6c0000000000000000606082015260800190565b6020808252602a908201527f4552433732313a2062616c616e636520717565727920666f7220746865207a65604082015269726f206164647265737360b01b606082015260800190565b60208082526029908201527f4552433732313a206f776e657220717565727920666f72206e6f6e657869737460408201526832b73a103a37b5b2b760b91b606082015260800190565b6020808252818101527f4552433732313a206d696e7420746f20746865207a65726f2061646472657373604082015260600190565b6020808252602c908201527f4552433732313a20617070726f76656420717565727920666f72206e6f6e657860408201526b34b9ba32b73a103a37b5b2b760a11b606082015260800190565b60208082526029908201527f4552433732313a207472616e73666572206f6620746f6b656e2074686174206960408201526839903737ba1037bbb760b91b606082015260800190565b6020808252602f908201527f4552433732314d657461646174613a2055524920717565727920666f72206e6f60408201526e3732bc34b9ba32b73a103a37b5b2b760891b606082015260800190565b60208082526021908201527f4552433732313a20617070726f76616c20746f2063757272656e74206f776e656040820152603960f91b606082015260800190565b60208082526031908201527f4552433732313a207472616e736665722063616c6c6572206973206e6f74206f6040820152701ddb995c881b9bdc88185c1c1c9bdd9959607a1b606082015260800190565b6020808252602c908201527f455243373231456e756d657261626c653a20676c6f62616c20696e646578206f60408201526b7574206f6620626f756e647360a01b606082015260800190565b6020808252603d908201527f4552433732315072657365744d696e7465725061757365724175746f49643a2060408201527f6d7573742068617665206d696e74657220726f6c6520746f206d696e74000000606082015260800190565b60208082526030908201527f4552433732314275726e61626c653a2063616c6c6572206973206e6f74206f7760408201526f1b995c881b9bdc88185c1c1c9bdd995960821b606082015260800190565b602080825260409082018190527f4552433732315072657365744d696e7465725061757365724175746f49643a20908201527f6d75737420686176652070617573657220726f6c6520746f20756e7061757365606082015260800190565b6020808252602f908201527f416363657373436f6e74726f6c3a2063616e206f6e6c792072656e6f756e636560408201526e103937b632b9903337b91039b2b63360891b606082015260800190565b60009081526020902090565b60008219821115612bd457612bd4612cd0565b500190565b600082612be857612be8612ce6565b500490565b6000816000190483118215151615612c0757612c07612cd0565b500290565b600082821015612c1e57612c1e612cd0565b500390565b60005b83811015612c3e578181015183820152602001612c26565b83811115610b855750506000910152565b600081612c5e57612c5e612cd0565b506000190190565b600281046001821680612c7a57607f821691505b60208210811415612c9b57634e487b7160e01b600052602260045260246000fd5b50919050565b6000600019821415612cb557612cb5612cd0565b5060010190565b600082612ccb57612ccb612ce6565b500690565b634e487b7160e01b600052601160045260246000fd5b634e487b7160e01b600052601260045260246000fd5b634e487b7160e01b600052604160045260246000fd5b6001600160e01b03198116811461080457600080fdfea264697066735822122002bc1cb582d2561e629a2a949740a129bca83fa56ee504fc7ec23287e240e8a464736f6c634300080000339f2df0fed2c77648de5860a4cc508cd0818c85b8b8a1ab4ceeef8d981c8956a6",
  "immutableReferences": {},
  "source": "// SPDX-License-Identifier: MIT\r\npragma solidity ^0.8.0;\r\n\r\nimport \"@openzeppelin/contracts/token/ERC721/presets/ERC721PresetMinterPauserAutoId.sol\";\r\nimport \"@openzeppelin/contracts/utils/Counters.sol\";\r\n\r\ncontract CattleiaERC721 is ERC721PresetMinterPauserAutoId {\r\n    using Counters for Counters.Counter;\r\n\r\n    string private _baseUri;\r\n\r\n    Counters.Counter private _track;\r\n\r\n    struct Track {\r\n        uint256[] tokens;\r\n    }\r\n\r\n    mapping(address => Track) private _totals;\r\n\r\n    event BaseURIChanged(string _old, string _new);\r\n\r\n    constructor(\r\n        string memory name_,\r\n        string memory symbol_,\r\n        string memory baseURI_,\r\n        uint256 supply_\r\n    ) ERC721PresetMinterPauserAutoId(name_, symbol_, baseURI_) {\r\n        _baseUri = baseURI_;\r\n        for (uint256 i = 0; i < supply_; i++) {\r\n            mint(msg.sender);\r\n        }\r\n    }\r\n\r\n    function changeBaseURI(string memory _newURI) public {\r\n        require(hasRole(DEFAULT_ADMIN_ROLE, msg.sender));\r\n        emit BaseURIChanged(_baseUri, _newURI);\r\n        _baseUri = _newURI;\r\n    }\r\n\r\n    function baseURI() public view returns (string memory) {\r\n        return _baseURI();\r\n    }\r\n\r\n    function tokensOf(address _owner) public view returns (uint256[] memory) {\r\n        return _totals[_owner].tokens;\r\n    }\r\n\r\n    function transfer(address _to, uint256 _tokenId) public {\r\n        require(ownerOf(_tokenId) == msg.sender);\r\n        _transfer(msg.sender, _to, _tokenId);\r\n    }\r\n\r\n    function _transfer(\r\n        address _from,\r\n        address _to,\r\n        uint256 _tokenId\r\n    ) internal override {\r\n        super._transfer(_from, _to, _tokenId);\r\n\r\n        uint256 i = 0;\r\n        while (_totals[_from].tokens[i] != _tokenId) {\r\n            i++;\r\n        }\r\n\r\n        while (i < _totals[_from].tokens.length - 1) {\r\n            _totals[_from].tokens[i] = _totals[_from].tokens[i + 1];\r\n            i++;\r\n        }\r\n        _totals[_from].tokens.pop();\r\n        _totals[_to].tokens.push(_tokenId);\r\n    }\r\n\r\n    function mint(address _to) public override {\r\n        super.mint(_to);\r\n        _totals[_to].tokens.push(_track.current());\r\n        _track.increment();\r\n    }\r\n\r\n    function _baseURI() internal view override returns (string memory) {\r\n        return _baseUri;\r\n    }\r\n}\r\n",
  "sourcePath": "C:\\Users\\aku\\Desktop\\dev\\projects\\cattleia\\cattleia-backend\\src\\contracts\\CattleiaERC721.sol",
  "compiler": {
    "name": "solc",
    "version": "0.8.0+commit.c7dfd78e.Emscripten.clang"
  },
  "schemaVersion": "3.4.3",
  "updatedAt": "2021-11-25T18:33:30.126Z",
  "networkType": "ethereum",
  "devdoc": {
    "kind": "dev",
    "methods": {
      "approve(address,uint256)": {
        "details": "See {IERC721-approve}."
      },
      "balanceOf(address)": {
        "details": "See {IERC721-balanceOf}."
      },
      "burn(uint256)": {
        "details": "Burns `tokenId`. See {ERC721-_burn}. Requirements: - The caller must own `tokenId` or be an approved operator."
      },
      "getApproved(uint256)": {
        "details": "See {IERC721-getApproved}."
      },
      "getRoleAdmin(bytes32)": {
        "details": "Returns the admin role that controls `role`. See {grantRole} and {revokeRole}. To change a role's admin, use {_setRoleAdmin}."
      },
      "getRoleMember(bytes32,uint256)": {
        "details": "Returns one of the accounts that have `role`. `index` must be a value between 0 and {getRoleMemberCount}, non-inclusive. Role bearers are not sorted in any particular way, and their ordering may change at any point. WARNING: When using {getRoleMember} and {getRoleMemberCount}, make sure you perform all queries on the same block. See the following https://forum.openzeppelin.com/t/iterating-over-elements-on-enumerableset-in-openzeppelin-contracts/2296[forum post] for more information."
      },
      "getRoleMemberCount(bytes32)": {
        "details": "Returns the number of accounts that have `role`. Can be used together with {getRoleMember} to enumerate all bearers of a role."
      },
      "grantRole(bytes32,address)": {
        "details": "Overload {grantRole} to track enumerable memberships"
      },
      "hasRole(bytes32,address)": {
        "details": "Returns `true` if `account` has been granted `role`."
      },
      "isApprovedForAll(address,address)": {
        "details": "See {IERC721-isApprovedForAll}."
      },
      "name()": {
        "details": "See {IERC721Metadata-name}."
      },
      "ownerOf(uint256)": {
        "details": "See {IERC721-ownerOf}."
      },
      "pause()": {
        "details": "Pauses all token transfers. See {ERC721Pausable} and {Pausable-_pause}. Requirements: - the caller must have the `PAUSER_ROLE`."
      },
      "paused()": {
        "details": "Returns true if the contract is paused, and false otherwise."
      },
      "renounceRole(bytes32,address)": {
        "details": "Overload {renounceRole} to track enumerable memberships"
      },
      "revokeRole(bytes32,address)": {
        "details": "Overload {revokeRole} to track enumerable memberships"
      },
      "safeTransferFrom(address,address,uint256)": {
        "details": "See {IERC721-safeTransferFrom}."
      },
      "safeTransferFrom(address,address,uint256,bytes)": {
        "details": "See {IERC721-safeTransferFrom}."
      },
      "setApprovalForAll(address,bool)": {
        "details": "See {IERC721-setApprovalForAll}."
      },
      "supportsInterface(bytes4)": {
        "details": "See {IERC165-supportsInterface}."
      },
      "symbol()": {
        "details": "See {IERC721Metadata-symbol}."
      },
      "tokenByIndex(uint256)": {
        "details": "See {IERC721Enumerable-tokenByIndex}."
      },
      "tokenOfOwnerByIndex(address,uint256)": {
        "details": "See {IERC721Enumerable-tokenOfOwnerByIndex}."
      },
      "tokenURI(uint256)": {
        "details": "See {IERC721Metadata-tokenURI}."
      },
      "totalSupply()": {
        "details": "See {IERC721Enumerable-totalSupply}."
      },
      "transferFrom(address,address,uint256)": {
        "details": "See {IERC721-transferFrom}."
      },
      "unpause()": {
        "details": "Unpauses all token transfers. See {ERC721Pausable} and {Pausable-_unpause}. Requirements: - the caller must have the `PAUSER_ROLE`."
      }
    },
    "version": 1
  },
  "userdoc": {
    "kind": "user",
    "methods": {},
    "version": 1
  }
}