{
  "contractName": "CattleiaERC721",
  "abi": [
    {
      "inputs": [
        {
          "internalType": "string",
          "name": "name_",
          "type": "string"
        },
        {
          "internalType": "string",
          "name": "symbol_",
          "type": "string"
        },
        {
          "internalType": "string",
          "name": "baseURI_",
          "type": "string"
        },
        {
          "internalType": "uint256",
          "name": "supply_",
          "type": "uint256"
        }
      ],
      "stateMutability": "nonpayable",
      "type": "constructor"
    },
    {
      "anonymous": false,
      "inputs": [
        {
          "indexed": true,
          "internalType": "address",
          "name": "owner",
          "type": "address"
        },
        {
          "indexed": true,
          "internalType": "address",
          "name": "approved",
          "type": "address"
        },
        {
          "indexed": true,
          "internalType": "uint256",
          "name": "tokenId",
          "type": "uint256"
        }
      ],
      "name": "Approval",
      "type": "event"
    },
    {
      "anonymous": false,
      "inputs": [
        {
          "indexed": true,
          "internalType": "address",
          "name": "owner",
          "type": "address"
        },
        {
          "indexed": true,
          "internalType": "address",
          "name": "operator",
          "type": "address"
        },
        {
          "indexed": false,
          "internalType": "bool",
          "name": "approved",
          "type": "bool"
        }
      ],
      "name": "ApprovalForAll",
      "type": "event"
    },
    {
      "anonymous": false,
      "inputs": [
        {
          "indexed": false,
          "internalType": "string",
          "name": "_old",
          "type": "string"
        },
        {
          "indexed": false,
          "internalType": "string",
          "name": "_new",
          "type": "string"
        }
      ],
      "name": "BaseURIChanged",
      "type": "event"
    },
    {
      "anonymous": false,
      "inputs": [
        {
          "indexed": false,
          "internalType": "address",
          "name": "account",
          "type": "address"
        }
      ],
      "name": "Paused",
      "type": "event"
    },
    {
      "anonymous": false,
      "inputs": [
        {
          "indexed": true,
          "internalType": "bytes32",
          "name": "role",
          "type": "bytes32"
        },
        {
          "indexed": true,
          "internalType": "bytes32",
          "name": "previousAdminRole",
          "type": "bytes32"
        },
        {
          "indexed": true,
          "internalType": "bytes32",
          "name": "newAdminRole",
          "type": "bytes32"
        }
      ],
      "name": "RoleAdminChanged",
      "type": "event"
    },
    {
      "anonymous": false,
      "inputs": [
        {
          "indexed": true,
          "internalType": "bytes32",
          "name": "role",
          "type": "bytes32"
        },
        {
          "indexed": true,
          "internalType": "address",
          "name": "account",
          "type": "address"
        },
        {
          "indexed": true,
          "internalType": "address",
          "name": "sender",
          "type": "address"
        }
      ],
      "name": "RoleGranted",
      "type": "event"
    },
    {
      "anonymous": false,
      "inputs": [
        {
          "indexed": true,
          "internalType": "bytes32",
          "name": "role",
          "type": "bytes32"
        },
        {
          "indexed": true,
          "internalType": "address",
          "name": "account",
          "type": "address"
        },
        {
          "indexed": true,
          "internalType": "address",
          "name": "sender",
          "type": "address"
        }
      ],
      "name": "RoleRevoked",
      "type": "event"
    },
    {
      "anonymous": false,
      "inputs": [
        {
          "indexed": true,
          "internalType": "address",
          "name": "from",
          "type": "address"
        },
        {
          "indexed": true,
          "internalType": "address",
          "name": "to",
          "type": "address"
        },
        {
          "indexed": true,
          "internalType": "uint256",
          "name": "tokenId",
          "type": "uint256"
        }
      ],
      "name": "Transfer",
      "type": "event"
    },
    {
      "anonymous": false,
      "inputs": [
        {
          "indexed": false,
          "internalType": "address",
          "name": "account",
          "type": "address"
        }
      ],
      "name": "Unpaused",
      "type": "event"
    },
    {
      "inputs": [],
      "name": "DEFAULT_ADMIN_ROLE",
      "outputs": [
        {
          "internalType": "bytes32",
          "name": "",
          "type": "bytes32"
        }
      ],
      "stateMutability": "view",
      "type": "function"
    },
    {
      "inputs": [],
      "name": "MINTER_ROLE",
      "outputs": [
        {
          "internalType": "bytes32",
          "name": "",
          "type": "bytes32"
        }
      ],
      "stateMutability": "view",
      "type": "function"
    },
    {
      "inputs": [],
      "name": "PAUSER_ROLE",
      "outputs": [
        {
          "internalType": "bytes32",
          "name": "",
          "type": "bytes32"
        }
      ],
      "stateMutability": "view",
      "type": "function"
    },
    {
      "inputs": [
        {
          "internalType": "address",
          "name": "to",
          "type": "address"
        },
        {
          "internalType": "uint256",
          "name": "tokenId",
          "type": "uint256"
        }
      ],
      "name": "approve",
      "outputs": [],
      "stateMutability": "nonpayable",
      "type": "function"
    },
    {
      "inputs": [
        {
          "internalType": "address",
          "name": "owner",
          "type": "address"
        }
      ],
      "name": "balanceOf",
      "outputs": [
        {
          "internalType": "uint256",
          "name": "",
          "type": "uint256"
        }
      ],
      "stateMutability": "view",
      "type": "function"
    },
    {
      "inputs": [
        {
          "internalType": "uint256",
          "name": "tokenId",
          "type": "uint256"
        }
      ],
      "name": "burn",
      "outputs": [],
      "stateMutability": "nonpayable",
      "type": "function"
    },
    {
      "inputs": [
        {
          "internalType": "uint256",
          "name": "tokenId",
          "type": "uint256"
        }
      ],
      "name": "getApproved",
      "outputs": [
        {
          "internalType": "address",
          "name": "",
          "type": "address"
        }
      ],
      "stateMutability": "view",
      "type": "function"
    },
    {
      "inputs": [
        {
          "internalType": "bytes32",
          "name": "role",
          "type": "bytes32"
        }
      ],
      "name": "getRoleAdmin",
      "outputs": [
        {
          "internalType": "bytes32",
          "name": "",
          "type": "bytes32"
        }
      ],
      "stateMutability": "view",
      "type": "function"
    },
    {
      "inputs": [
        {
          "internalType": "bytes32",
          "name": "role",
          "type": "bytes32"
        },
        {
          "internalType": "uint256",
          "name": "index",
          "type": "uint256"
        }
      ],
      "name": "getRoleMember",
      "outputs": [
        {
          "internalType": "address",
          "name": "",
          "type": "address"
        }
      ],
      "stateMutability": "view",
      "type": "function"
    },
    {
      "inputs": [
        {
          "internalType": "bytes32",
          "name": "role",
          "type": "bytes32"
        }
      ],
      "name": "getRoleMemberCount",
      "outputs": [
        {
          "internalType": "uint256",
          "name": "",
          "type": "uint256"
        }
      ],
      "stateMutability": "view",
      "type": "function"
    },
    {
      "inputs": [
        {
          "internalType": "bytes32",
          "name": "role",
          "type": "bytes32"
        },
        {
          "internalType": "address",
          "name": "account",
          "type": "address"
        }
      ],
      "name": "grantRole",
      "outputs": [],
      "stateMutability": "nonpayable",
      "type": "function"
    },
    {
      "inputs": [
        {
          "internalType": "bytes32",
          "name": "role",
          "type": "bytes32"
        },
        {
          "internalType": "address",
          "name": "account",
          "type": "address"
        }
      ],
      "name": "hasRole",
      "outputs": [
        {
          "internalType": "bool",
          "name": "",
          "type": "bool"
        }
      ],
      "stateMutability": "view",
      "type": "function"
    },
    {
      "inputs": [
        {
          "internalType": "address",
          "name": "owner",
          "type": "address"
        },
        {
          "internalType": "address",
          "name": "operator",
          "type": "address"
        }
      ],
      "name": "isApprovedForAll",
      "outputs": [
        {
          "internalType": "bool",
          "name": "",
          "type": "bool"
        }
      ],
      "stateMutability": "view",
      "type": "function"
    },
    {
      "inputs": [],
      "name": "name",
      "outputs": [
        {
          "internalType": "string",
          "name": "",
          "type": "string"
        }
      ],
      "stateMutability": "view",
      "type": "function"
    },
    {
      "inputs": [
        {
          "internalType": "uint256",
          "name": "tokenId",
          "type": "uint256"
        }
      ],
      "name": "ownerOf",
      "outputs": [
        {
          "internalType": "address",
          "name": "",
          "type": "address"
        }
      ],
      "stateMutability": "view",
      "type": "function"
    },
    {
      "inputs": [],
      "name": "pause",
      "outputs": [],
      "stateMutability": "nonpayable",
      "type": "function"
    },
    {
      "inputs": [],
      "name": "paused",
      "outputs": [
        {
          "internalType": "bool",
          "name": "",
          "type": "bool"
        }
      ],
      "stateMutability": "view",
      "type": "function"
    },
    {
      "inputs": [
        {
          "internalType": "bytes32",
          "name": "role",
          "type": "bytes32"
        },
        {
          "internalType": "address",
          "name": "account",
          "type": "address"
        }
      ],
      "name": "renounceRole",
      "outputs": [],
      "stateMutability": "nonpayable",
      "type": "function"
    },
    {
      "inputs": [
        {
          "internalType": "bytes32",
          "name": "role",
          "type": "bytes32"
        },
        {
          "internalType": "address",
          "name": "account",
          "type": "address"
        }
      ],
      "name": "revokeRole",
      "outputs": [],
      "stateMutability": "nonpayable",
      "type": "function"
    },
    {
      "inputs": [
        {
          "internalType": "address",
          "name": "from",
          "type": "address"
        },
        {
          "internalType": "address",
          "name": "to",
          "type": "address"
        },
        {
          "internalType": "uint256",
          "name": "tokenId",
          "type": "uint256"
        }
      ],
      "name": "safeTransferFrom",
      "outputs": [],
      "stateMutability": "nonpayable",
      "type": "function"
    },
    {
      "inputs": [
        {
          "internalType": "address",
          "name": "from",
          "type": "address"
        },
        {
          "internalType": "address",
          "name": "to",
          "type": "address"
        },
        {
          "internalType": "uint256",
          "name": "tokenId",
          "type": "uint256"
        },
        {
          "internalType": "bytes",
          "name": "_data",
          "type": "bytes"
        }
      ],
      "name": "safeTransferFrom",
      "outputs": [],
      "stateMutability": "nonpayable",
      "type": "function"
    },
    {
      "inputs": [
        {
          "internalType": "address",
          "name": "operator",
          "type": "address"
        },
        {
          "internalType": "bool",
          "name": "approved",
          "type": "bool"
        }
      ],
      "name": "setApprovalForAll",
      "outputs": [],
      "stateMutability": "nonpayable",
      "type": "function"
    },
    {
      "inputs": [
        {
          "internalType": "bytes4",
          "name": "interfaceId",
          "type": "bytes4"
        }
      ],
      "name": "supportsInterface",
      "outputs": [
        {
          "internalType": "bool",
          "name": "",
          "type": "bool"
        }
      ],
      "stateMutability": "view",
      "type": "function"
    },
    {
      "inputs": [],
      "name": "symbol",
      "outputs": [
        {
          "internalType": "string",
          "name": "",
          "type": "string"
        }
      ],
      "stateMutability": "view",
      "type": "function"
    },
    {
      "inputs": [
        {
          "internalType": "uint256",
          "name": "index",
          "type": "uint256"
        }
      ],
      "name": "tokenByIndex",
      "outputs": [
        {
          "internalType": "uint256",
          "name": "",
          "type": "uint256"
        }
      ],
      "stateMutability": "view",
      "type": "function"
    },
    {
      "inputs": [
        {
          "internalType": "address",
          "name": "owner",
          "type": "address"
        },
        {
          "internalType": "uint256",
          "name": "index",
          "type": "uint256"
        }
      ],
      "name": "tokenOfOwnerByIndex",
      "outputs": [
        {
          "internalType": "uint256",
          "name": "",
          "type": "uint256"
        }
      ],
      "stateMutability": "view",
      "type": "function"
    },
    {
      "inputs": [
        {
          "internalType": "uint256",
          "name": "tokenId",
          "type": "uint256"
        }
      ],
      "name": "tokenURI",
      "outputs": [
        {
          "internalType": "string",
          "name": "",
          "type": "string"
        }
      ],
      "stateMutability": "view",
      "type": "function"
    },
    {
      "inputs": [],
      "name": "totalSupply",
      "outputs": [
        {
          "internalType": "uint256",
          "name": "",
          "type": "uint256"
        }
      ],
      "stateMutability": "view",
      "type": "function"
    },
    {
      "inputs": [
        {
          "internalType": "address",
          "name": "from",
          "type": "address"
        },
        {
          "internalType": "address",
          "name": "to",
          "type": "address"
        },
        {
          "internalType": "uint256",
          "name": "tokenId",
          "type": "uint256"
        }
      ],
      "name": "transferFrom",
      "outputs": [],
      "stateMutability": "nonpayable",
      "type": "function"
    },
    {
      "inputs": [],
      "name": "unpause",
      "outputs": [],
      "stateMutability": "nonpayable",
      "type": "function"
    },
    {
      "inputs": [
        {
          "internalType": "string",
          "name": "_newURI",
          "type": "string"
        }
      ],
      "name": "changeBaseURI",
      "outputs": [],
      "stateMutability": "nonpayable",
      "type": "function"
    },
    {
      "inputs": [],
      "name": "baseURI",
      "outputs": [
        {
          "internalType": "string",
          "name": "",
          "type": "string"
        }
      ],
      "stateMutability": "view",
      "type": "function"
    },
    {
      "inputs": [
        {
          "internalType": "address",
          "name": "_owner",
          "type": "address"
        }
      ],
      "name": "tokensOf",
      "outputs": [
        {
          "internalType": "uint256[]",
          "name": "",
          "type": "uint256[]"
        }
      ],
      "stateMutability": "view",
      "type": "function"
    },
    {
      "inputs": [
        {
          "internalType": "address",
          "name": "_to",
          "type": "address"
        },
        {
          "internalType": "uint256",
          "name": "_tokenId",
          "type": "uint256"
        }
      ],
      "name": "transfer",
      "outputs": [],
      "stateMutability": "nonpayable",
      "type": "function"
    },
    {
      "inputs": [
        {
          "internalType": "address",
          "name": "_to",
          "type": "address"
        }
      ],
      "name": "mint",
      "outputs": [],
      "stateMutability": "nonpayable",
      "type": "function"
    }
  ],
  "bytecode": "0x60806040523480156200001157600080fd5b506040516200662a3803806200662a833981810160405281019062000037919062000fa2565b838383828281600290805190602001906200005492919062000e69565b5080600390805190602001906200006d92919062000e69565b5050506000600c60006101000a81548160ff02191690831515021790555080600e9080519060200190620000a392919062000e69565b50620000c86000801b620000bc620001a460201b60201c565b620001ac60201b60201c565b620001097f9f2df0fed2c77648de5860a4cc508cd0818c85b8b8a1ab4ceeef8d981c8956a6620000fd620001a460201b60201c565b620001ac60201b60201c565b6200014a7f65d7a28e3265b37a6474929f336521b332c1681b933f6cb9f3376673440d862a6200013e620001a460201b60201c565b620001ac60201b60201c565b50505081600f90805190602001906200016592919062000e69565b5060005b8181101562000199576200018333620001c260201b60201c565b8080620001909062001445565b91505062000169565b50505050506200153a565b600033905090565b620001be82826200027160201b60201c565b5050565b620001d881620002b960201b620013e41760201c565b601160008273ffffffffffffffffffffffffffffffffffffffff1673ffffffffffffffffffffffffffffffffffffffff1681526020019081526020016000206000016200023160106200037e60201b620014741760201c565b90806001815401808255809150506001900390600052602060002001600090919091909150556200026e60106200038c60201b620014821760201c565b50565b620002888282620003a260201b620014981760201c565b620002b481600160008581526020019081526020016000206200049360201b620015781790919060201c565b505050565b620002fa7f9f2df0fed2c77648de5860a4cc508cd0818c85b8b8a1ab4ceeef8d981c8956a6620002ee620001a460201b60201c565b620004cb60201b60201c565b6200033c576040517f08c379a000000000000000000000000000000000000000000000000000000000815260040162000333906200129d565b60405180910390fd5b620003648162000358600d6200037e60201b620014741760201c565b6200053560201b60201c565b6200037b600d6200038c60201b620014821760201c565b50565b600081600001549050919050565b6001816000016000828254019250508190555050565b620003b48282620004cb60201b60201c565b6200048f57600160008084815260200190815260200160002060000160008373ffffffffffffffffffffffffffffffffffffffff1673ffffffffffffffffffffffffffffffffffffffff16815260200190815260200160002060006101000a81548160ff02191690831515021790555062000434620001a460201b60201c565b73ffffffffffffffffffffffffffffffffffffffff168173ffffffffffffffffffffffffffffffffffffffff16837f2f8788117e7eff1d82e926ec794901d17c78024a50270940304540a733656f0d60405160405180910390a45b5050565b6000620004c3836000018373ffffffffffffffffffffffffffffffffffffffff1660001b6200071b60201b60201c565b905092915050565b600080600084815260200190815260200160002060000160008373ffffffffffffffffffffffffffffffffffffffff1673ffffffffffffffffffffffffffffffffffffffff16815260200190815260200160002060009054906101000a900460ff16905092915050565b600073ffffffffffffffffffffffffffffffffffffffff168273ffffffffffffffffffffffffffffffffffffffff161415620005a8576040517f08c379a00000000000000000000000000000000000000000000000000000000081526004016200059f906200127b565b60405180910390fd5b620005b9816200079560201b60201c565b15620005fc576040517f08c379a0000000000000000000000000000000000000000000000000000000008152600401620005f39062001237565b60405180910390fd5b62000610600083836200080160201b60201c565b6001600560008473ffffffffffffffffffffffffffffffffffffffff1673ffffffffffffffffffffffffffffffffffffffff168152602001908152602001600020600082825462000662919062001337565b92505081905550816004600083815260200190815260200160002060006101000a81548173ffffffffffffffffffffffffffffffffffffffff021916908373ffffffffffffffffffffffffffffffffffffffff160217905550808273ffffffffffffffffffffffffffffffffffffffff16600073ffffffffffffffffffffffffffffffffffffffff167fddf252ad1be2c89b69c2b068fc378daa952ba7f163c4a11628f55a4df523b3ef60405160405180910390a45050565b60006200072f83836200081e60201b60201c565b6200078a5782600001829080600181540180825580915050600190039060005260206000200160009091909190915055826000018054905083600101600084815260200190815260200160002081905550600190506200078f565b600090505b92915050565b60008073ffffffffffffffffffffffffffffffffffffffff166004600084815260200190815260200160002060009054906101000a900473ffffffffffffffffffffffffffffffffffffffff1673ffffffffffffffffffffffffffffffffffffffff1614159050919050565b620008198383836200084160201b620015a81760201c565b505050565b600080836001016000848152602001908152602001600020541415905092915050565b62000859838383620008b160201b620016001760201c565b62000869620009f860201b60201c565b15620008ac576040517f08c379a0000000000000000000000000000000000000000000000000000000008152600401620008a39062001215565b60405180910390fd5b505050565b620008c983838362000a0f60201b620017141760201c565b600073ffffffffffffffffffffffffffffffffffffffff168373ffffffffffffffffffffffffffffffffffffffff1614156200091657620009108162000a1460201b60201c565b6200095e565b8173ffffffffffffffffffffffffffffffffffffffff168373ffffffffffffffffffffffffffffffffffffffff16146200095d576200095c838262000a5d60201b60201c565b5b5b600073ffffffffffffffffffffffffffffffffffffffff168273ffffffffffffffffffffffffffffffffffffffff161415620009ab57620009a58162000bda60201b60201c565b620009f3565b8273ffffffffffffffffffffffffffffffffffffffff168273ffffffffffffffffffffffffffffffffffffffff1614620009f257620009f1828262000d2260201b60201c565b5b5b505050565b6000600c60009054906101000a900460ff16905090565b505050565b600a80549050600b600083815260200190815260200160002081905550600a81908060018154018082558091505060019003906000526020600020016000909190919091505550565b6000600162000a778462000dae60201b62000ee91760201c565b62000a83919062001394565b905060006009600084815260200190815260200160002054905081811462000b69576000600860008673ffffffffffffffffffffffffffffffffffffffff1673ffffffffffffffffffffffffffffffffffffffff168152602001908152602001600020600084815260200190815260200160002054905080600860008773ffffffffffffffffffffffffffffffffffffffff1673ffffffffffffffffffffffffffffffffffffffff168152602001908152602001600020600084815260200190815260200160002081905550816009600083815260200190815260200160002081905550505b6009600084815260200190815260200160002060009055600860008573ffffffffffffffffffffffffffffffffffffffff1673ffffffffffffffffffffffffffffffffffffffff16815260200190815260200160002060008381526020019081526020016000206000905550505050565b60006001600a8054905062000bf0919062001394565b90506000600b60008481526020019081526020016000205490506000600a838154811062000c47577f4e487b7100000000000000000000000000000000000000000000000000000000600052603260045260246000fd5b9060005260206000200154905080600a838154811062000c90577f4e487b7100000000000000000000000000000000000000000000000000000000600052603260045260246000fd5b906000526020600020018190555081600b600083815260200190815260200160002081905550600b600085815260200190815260200160002060009055600a80548062000d06577f4e487b7100000000000000000000000000000000000000000000000000000000600052603160045260246000fd5b6001900381819060005260206000200160009055905550505050565b600062000d3a8362000dae60201b62000ee91760201c565b905081600860008573ffffffffffffffffffffffffffffffffffffffff1673ffffffffffffffffffffffffffffffffffffffff168152602001908152602001600020600083815260200190815260200160002081905550806009600084815260200190815260200160002081905550505050565b60008073ffffffffffffffffffffffffffffffffffffffff168273ffffffffffffffffffffffffffffffffffffffff16141562000e22576040517f08c379a000000000000000000000000000000000000000000000000000000000815260040162000e199062001259565b60405180910390fd5b600560008373ffffffffffffffffffffffffffffffffffffffff1673ffffffffffffffffffffffffffffffffffffffff168152602001908152602001600020549050919050565b82805462000e77906200140f565b90600052602060002090601f01602090048101928262000e9b576000855562000ee7565b82601f1062000eb657805160ff191683800117855562000ee7565b8280016001018555821562000ee7579182015b8281111562000ee657825182559160200191906001019062000ec9565b5b50905062000ef6919062000efa565b5090565b5b8082111562000f1557600081600090555060010162000efb565b5090565b600062000f3062000f2a84620012f3565b620012bf565b90508281526020810184848401111562000f4957600080fd5b62000f56848285620013d9565b509392505050565b600082601f83011262000f7057600080fd5b815162000f8284826020860162000f19565b91505092915050565b60008151905062000f9c8162001520565b92915050565b6000806000806080858703121562000fb957600080fd5b600085015167ffffffffffffffff81111562000fd457600080fd5b62000fe28782880162000f5e565b945050602085015167ffffffffffffffff8111156200100057600080fd5b6200100e8782880162000f5e565b935050604085015167ffffffffffffffff8111156200102c57600080fd5b6200103a8782880162000f5e565b92505060606200104d8782880162000f8b565b91505092959194509250565b600062001068602b8362001326565b91507f4552433732315061757361626c653a20746f6b656e207472616e73666572207760008301527f68696c65207061757365640000000000000000000000000000000000000000006020830152604082019050919050565b6000620010d0601c8362001326565b91507f4552433732313a20746f6b656e20616c7265616479206d696e746564000000006000830152602082019050919050565b600062001112602a8362001326565b91507f4552433732313a2062616c616e636520717565727920666f7220746865207a6560008301527f726f2061646472657373000000000000000000000000000000000000000000006020830152604082019050919050565b60006200117a60208362001326565b91507f4552433732313a206d696e7420746f20746865207a65726f20616464726573736000830152602082019050919050565b6000620011bc603d8362001326565b91507f4552433732315072657365744d696e7465725061757365724175746f49643a2060008301527f6d7573742068617665206d696e74657220726f6c6520746f206d696e740000006020830152604082019050919050565b60006020820190508181036000830152620012308162001059565b9050919050565b600060208201905081810360008301526200125281620010c1565b9050919050565b60006020820190508181036000830152620012748162001103565b9050919050565b6000602082019050818103600083015262001296816200116b565b9050919050565b60006020820190508181036000830152620012b881620011ad565b9050919050565b6000604051905081810181811067ffffffffffffffff82111715620012e957620012e8620014f1565b5b8060405250919050565b600067ffffffffffffffff821115620013115762001310620014f1565b5b601f19601f8301169050602081019050919050565b600082825260208201905092915050565b60006200134482620013cf565b91506200135183620013cf565b9250827fffffffffffffffffffffffffffffffffffffffffffffffffffffffffffffffff0382111562001389576200138862001493565b5b828201905092915050565b6000620013a182620013cf565b9150620013ae83620013cf565b925082821015620013c457620013c362001493565b5b828203905092915050565b6000819050919050565b60005b83811015620013f9578082015181840152602081019050620013dc565b8381111562001409576000848401525b50505050565b600060028204905060018216806200142857607f821691505b602082108114156200143f576200143e620014c2565b5b50919050565b60006200145282620013cf565b91507fffffffffffffffffffffffffffffffffffffffffffffffffffffffffffffffff82141562001488576200148762001493565b5b600182019050919050565b7f4e487b7100000000000000000000000000000000000000000000000000000000600052601160045260246000fd5b7f4e487b7100000000000000000000000000000000000000000000000000000000600052602260045260246000fd5b7f4e487b7100000000000000000000000000000000000000000000000000000000600052604160045260246000fd5b6200152b81620013cf565b81146200153757600080fd5b50565b6150e0806200154a6000396000f3fe608060405234801561001057600080fd5b50600436106102115760003560e01c80636352211e11610125578063a22cb465116100ad578063ca15c8731161007c578063ca15c87314610622578063d539139314610652578063d547741f14610670578063e63ab1e91461068c578063e985e9c5146106aa57610211565b8063a22cb4651461059e578063a9059cbb146105ba578063b88d4fde146105d6578063c87b56dd146105f257610211565b80638456cb59116100f45780638456cb59146104f85780639010d07c1461050257806391d148541461053257806395d89b4114610562578063a217fddf1461058057610211565b80636352211e1461045e5780636a6278421461048e5780636c0360eb146104aa57806370a08231146104c857610211565b80632f745c59116101a857806342842e0e1161017757806342842e0e146103a857806342966c68146103c45780634f6ccce7146103e05780635a3f2672146104105780635c975abb1461044057610211565b80632f745c591461033657806336568abe1461036657806339a0c6f9146103825780633f4ba83a1461039e57610211565b806318160ddd116101e457806318160ddd146102b057806323b872dd146102ce578063248a9ca3146102ea5780632f2ff15d1461031a57610211565b806301ffc9a71461021657806306fdde0314610246578063081812fc14610264578063095ea7b314610294575b600080fd5b610230600480360381019061022b9190613aba565b6106da565b60405161023d91906147d3565b60405180910390f35b61024e6106ec565b60405161025b9190614809565b60405180910390f35b61027e60048036038101906102799190613b4d565b61077e565b60405161028b919061474a565b60405180910390f35b6102ae60048036038101906102a991906139dd565b610803565b005b6102b861091b565b6040516102c59190614b82565b60405180910390f35b6102e860048036038101906102e391906138d7565b610928565b005b61030460048036038101906102ff9190613a19565b610988565b60405161031191906147ee565b60405180910390f35b610334600480360381019061032f9190613a42565b6109a7565b005b610350600480360381019061034b91906139dd565b6109d0565b60405161035d9190614b82565b60405180910390f35b610380600480360381019061037b9190613a42565b610a75565b005b61039c60048036038101906103979190613b0c565b610af8565b005b6103a6610b62565b005b6103c260048036038101906103bd91906138d7565b610bdc565b005b6103de60048036038101906103d99190613b4d565b610bfc565b005b6103fa60048036038101906103f59190613b4d565b610c58565b6040516104079190614b82565b60405180910390f35b61042a60048036038101906104259190613872565b610cef565b60405161043791906147b1565b60405180910390f35b610448610d89565b60405161045591906147d3565b60405180910390f35b61047860048036038101906104739190613b4d565b610da0565b604051610485919061474a565b60405180910390f35b6104a860048036038101906104a39190613872565b610e52565b005b6104b2610eda565b6040516104bf9190614809565b60405180910390f35b6104e260048036038101906104dd9190613872565b610ee9565b6040516104ef9190614b82565b60405180910390f35b610500610fa1565b005b61051c60048036038101906105179190613a7e565b61101b565b604051610529919061474a565b60405180910390f35b61054c60048036038101906105479190613a42565b61104a565b60405161055991906147d3565b60405180910390f35b61056a6110b4565b6040516105779190614809565b60405180910390f35b610588611146565b60405161059591906147ee565b60405180910390f35b6105b860048036038101906105b391906139a1565b61114d565b005b6105d460048036038101906105cf91906139dd565b611163565b005b6105f060048036038101906105eb9190613926565b6111b2565b005b61060c60048036038101906106079190613b4d565b611214565b6040516106199190614809565b60405180910390f35b61063c60048036038101906106379190613a19565b6112bb565b6040516106499190614b82565b60405180910390f35b61065a6112df565b60405161066791906147ee565b60405180910390f35b61068a60048036038101906106859190613a42565b611303565b005b61069461132c565b6040516106a191906147ee565b60405180910390f35b6106c460048036038101906106bf919061389b565b611350565b6040516106d191906147d3565b60405180910390f35b60006106e582611719565b9050919050565b6060600280546106fb90614ebe565b80601f016020809104026020016040519081016040528092919081815260200182805461072790614ebe565b80156107745780601f1061074957610100808354040283529160200191610774565b820191906000526020600020905b81548152906001019060200180831161075757829003601f168201915b5050505050905090565b600061078982611793565b6107c8576040517f08c379a00000000000000000000000000000000000000000000000000000000081526004016107bf90614a42565b60405180910390fd5b6006600083815260200190815260200160002060009054906101000a900473ffffffffffffffffffffffffffffffffffffffff169050919050565b600061080e82610da0565b90508073ffffffffffffffffffffffffffffffffffffffff168373ffffffffffffffffffffffffffffffffffffffff16141561087f576040517f08c379a000000000000000000000000000000000000000000000000000000000815260040161087690614aa2565b60405180910390fd5b8073ffffffffffffffffffffffffffffffffffffffff1661089e6117ff565b73ffffffffffffffffffffffffffffffffffffffff1614806108cd57506108cc816108c76117ff565b611350565b5b61090c576040517f08c379a0000000000000000000000000000000000000000000000000000000008152600401610903906149c2565b60405180910390fd5b6109168383611807565b505050565b6000600a80549050905090565b6109396109336117ff565b826118c0565b610978576040517f08c379a000000000000000000000000000000000000000000000000000000000815260040161096f90614ac2565b60405180910390fd5b61098383838361199e565b505050565b6000806000838152602001908152602001600020600101549050919050565b6109b082610988565b6109c1816109bc6117ff565b611ccd565b6109cb8383611d6a565b505050565b60006109db83610ee9565b8210610a1c576040517f08c379a0000000000000000000000000000000000000000000000000000000008152600401610a13906148c2565b60405180910390fd5b600860008473ffffffffffffffffffffffffffffffffffffffff1673ffffffffffffffffffffffffffffffffffffffff168152602001908152602001600020600083815260200190815260200160002054905092915050565b610a7d6117ff565b73ffffffffffffffffffffffffffffffffffffffff168173ffffffffffffffffffffffffffffffffffffffff1614610aea576040517f08c379a0000000000000000000000000000000000000000000000000000000008152600401610ae190614b62565b60405180910390fd5b610af48282611d9e565b5050565b610b056000801b3361104a565b610b0e57600080fd5b7fc41b7cb64e5be01af4afc2641afc861432136270f4206b7773f229b658b96699600f82604051610b4092919061482b565b60405180910390a180600f9080519060200190610b5e929190613681565b5050565b610b937f65d7a28e3265b37a6474929f336521b332c1681b933f6cb9f3376673440d862a610b8e6117ff565b61104a565b610bd2576040517f08c379a0000000000000000000000000000000000000000000000000000000008152600401610bc990614b42565b60405180910390fd5b610bda611dd2565b565b610bf7838383604051806020016040528060008152506111b2565b505050565b610c0d610c076117ff565b826118c0565b610c4c576040517f08c379a0000000000000000000000000000000000000000000000000000000008152600401610c4390614b22565b60405180910390fd5b610c5581611e74565b50565b6000610c6261091b565b8210610ca3576040517f08c379a0000000000000000000000000000000000000000000000000000000008152600401610c9a90614ae2565b60405180910390fd5b600a8281548110610cdd577f4e487b7100000000000000000000000000000000000000000000000000000000600052603260045260246000fd5b90600052602060002001549050919050565b6060601160008373ffffffffffffffffffffffffffffffffffffffff1673ffffffffffffffffffffffffffffffffffffffff168152602001908152602001600020600001805480602002602001604051908101604052809291908181526020018280548015610d7d57602002820191906000526020600020905b815481526020019060010190808311610d69575b50505050509050919050565b6000600c60009054906101000a900460ff16905090565b6000806004600084815260200190815260200160002060009054906101000a900473ffffffffffffffffffffffffffffffffffffffff169050600073ffffffffffffffffffffffffffffffffffffffff168173ffffffffffffffffffffffffffffffffffffffff161415610e49576040517f08c379a0000000000000000000000000000000000000000000000000000000008152600401610e4090614a02565b60405180910390fd5b80915050919050565b610e5b816113e4565b601160008273ffffffffffffffffffffffffffffffffffffffff1673ffffffffffffffffffffffffffffffffffffffff168152602001908152602001600020600001610ea76010611474565b9080600181540180825580915050600190039060005260206000200160009091909190915055610ed76010611482565b50565b6060610ee4611f85565b905090565b60008073ffffffffffffffffffffffffffffffffffffffff168273ffffffffffffffffffffffffffffffffffffffff161415610f5a576040517f08c379a0000000000000000000000000000000000000000000000000000000008152600401610f51906149e2565b60405180910390fd5b600560008373ffffffffffffffffffffffffffffffffffffffff1673ffffffffffffffffffffffffffffffffffffffff168152602001908152602001600020549050919050565b610fd27f65d7a28e3265b37a6474929f336521b332c1681b933f6cb9f3376673440d862a610fcd6117ff565b61104a565b611011576040517f08c379a000000000000000000000000000000000000000000000000000000000815260040161100890614922565b60405180910390fd5b611019612017565b565b600061104282600160008681526020019081526020016000206120ba90919063ffffffff16565b905092915050565b600080600084815260200190815260200160002060000160008373ffffffffffffffffffffffffffffffffffffffff1673ffffffffffffffffffffffffffffffffffffffff16815260200190815260200160002060009054906101000a900460ff16905092915050565b6060600380546110c390614ebe565b80601f01602080910402602001604051908101604052809291908181526020018280546110ef90614ebe565b801561113c5780601f106111115761010080835404028352916020019161113c565b820191906000526020600020905b81548152906001019060200180831161111f57829003601f168201915b5050505050905090565b6000801b81565b61115f6111586117ff565b83836120d4565b5050565b3373ffffffffffffffffffffffffffffffffffffffff1661118382610da0565b73ffffffffffffffffffffffffffffffffffffffff16146111a357600080fd5b6111ae33838361199e565b5050565b6111c36111bd6117ff565b836118c0565b611202576040517f08c379a00000000000000000000000000000000000000000000000000000000081526004016111f990614ac2565b60405180910390fd5b61120e84848484612241565b50505050565b606061121f82611793565b61125e576040517f08c379a000000000000000000000000000000000000000000000000000000000815260040161125590614a82565b60405180910390fd5b6000611268611f85565b9050600081511161128857604051806020016040528060008152506112b3565b806112928461229d565b6040516020016112a39291906146ec565b6040516020818303038152906040525b915050919050565b60006112d86001600084815260200190815260200160002061244a565b9050919050565b7f9f2df0fed2c77648de5860a4cc508cd0818c85b8b8a1ab4ceeef8d981c8956a681565b61130c82610988565b61131d816113186117ff565b611ccd565b6113278383611d9e565b505050565b7f65d7a28e3265b37a6474929f336521b332c1681b933f6cb9f3376673440d862a81565b6000600760008473ffffffffffffffffffffffffffffffffffffffff1673ffffffffffffffffffffffffffffffffffffffff16815260200190815260200160002060008373ffffffffffffffffffffffffffffffffffffffff1673ffffffffffffffffffffffffffffffffffffffff16815260200190815260200160002060009054906101000a900460ff16905092915050565b6114157f9f2df0fed2c77648de5860a4cc508cd0818c85b8b8a1ab4ceeef8d981c8956a66114106117ff565b61104a565b611454576040517f08c379a000000000000000000000000000000000000000000000000000000000815260040161144b90614b02565b60405180910390fd5b61146781611462600d611474565b61245f565b611471600d611482565b50565b600081600001549050919050565b6001816000016000828254019250508190555050565b6114a2828261104a565b61157457600160008084815260200190815260200160002060000160008373ffffffffffffffffffffffffffffffffffffffff1673ffffffffffffffffffffffffffffffffffffffff16815260200190815260200160002060006101000a81548160ff0219169083151502179055506115196117ff565b73ffffffffffffffffffffffffffffffffffffffff168173ffffffffffffffffffffffffffffffffffffffff16837f2f8788117e7eff1d82e926ec794901d17c78024a50270940304540a733656f0d60405160405180910390a45b5050565b60006115a0836000018373ffffffffffffffffffffffffffffffffffffffff1660001b61262d565b905092915050565b6115b3838383611600565b6115bb610d89565b156115fb576040517f08c379a00000000000000000000000000000000000000000000000000000000081526004016115f290614882565b60405180910390fd5b505050565b61160b838383611714565b600073ffffffffffffffffffffffffffffffffffffffff168373ffffffffffffffffffffffffffffffffffffffff16141561164e576116498161269d565b61168d565b8173ffffffffffffffffffffffffffffffffffffffff168373ffffffffffffffffffffffffffffffffffffffff161461168c5761168b83826126e6565b5b5b600073ffffffffffffffffffffffffffffffffffffffff168273ffffffffffffffffffffffffffffffffffffffff1614156116d0576116cb81612853565b61170f565b8273ffffffffffffffffffffffffffffffffffffffff168273ffffffffffffffffffffffffffffffffffffffff161461170e5761170d8282612996565b5b5b505050565b505050565b60007f780e9d63000000000000000000000000000000000000000000000000000000007bffffffffffffffffffffffffffffffffffffffffffffffffffffffff1916827bffffffffffffffffffffffffffffffffffffffffffffffffffffffff1916148061178c575061178b82612a15565b5b9050919050565b60008073ffffffffffffffffffffffffffffffffffffffff166004600084815260200190815260200160002060009054906101000a900473ffffffffffffffffffffffffffffffffffffffff1673ffffffffffffffffffffffffffffffffffffffff1614159050919050565b600033905090565b816006600083815260200190815260200160002060006101000a81548173ffffffffffffffffffffffffffffffffffffffff021916908373ffffffffffffffffffffffffffffffffffffffff160217905550808273ffffffffffffffffffffffffffffffffffffffff1661187a83610da0565b73ffffffffffffffffffffffffffffffffffffffff167f8c5be1e5ebec7d5bd14f71427d1e84f3dd0314c0f7b2291e5b200ac8c7c3b92560405160405180910390a45050565b60006118cb82611793565b61190a576040517f08c379a000000000000000000000000000000000000000000000000000000000815260040161190190614982565b60405180910390fd5b600061191583610da0565b90508073ffffffffffffffffffffffffffffffffffffffff168473ffffffffffffffffffffffffffffffffffffffff16148061198457508373ffffffffffffffffffffffffffffffffffffffff1661196c8461077e565b73ffffffffffffffffffffffffffffffffffffffff16145b8061199557506119948185611350565b5b91505092915050565b6119a9838383612af7565b60005b81601160008673ffffffffffffffffffffffffffffffffffffffff1673ffffffffffffffffffffffffffffffffffffffff1681526020019081526020016000206000018281548110611a27577f4e487b7100000000000000000000000000000000000000000000000000000000600052603260045260246000fd5b906000526020600020015414611a4a578080611a4290614ef0565b9150506119ac565b5b6001601160008673ffffffffffffffffffffffffffffffffffffffff1673ffffffffffffffffffffffffffffffffffffffff16815260200190815260200160002060000180549050611a9d9190614da0565b811015611bd057601160008573ffffffffffffffffffffffffffffffffffffffff1673ffffffffffffffffffffffffffffffffffffffff168152602001908152602001600020600001600182611af39190614cbf565b81548110611b2a577f4e487b7100000000000000000000000000000000000000000000000000000000600052603260045260246000fd5b9060005260206000200154601160008673ffffffffffffffffffffffffffffffffffffffff1673ffffffffffffffffffffffffffffffffffffffff1681526020019081526020016000206000018281548110611baf577f4e487b7100000000000000000000000000000000000000000000000000000000600052603260045260246000fd5b90600052602060002001819055508080611bc890614ef0565b915050611a4b565b601160008573ffffffffffffffffffffffffffffffffffffffff1673ffffffffffffffffffffffffffffffffffffffff168152602001908152602001600020600001805480611c48577f4e487b7100000000000000000000000000000000000000000000000000000000600052603160045260246000fd5b60019003818190600052602060002001600090559055601160008473ffffffffffffffffffffffffffffffffffffffff1673ffffffffffffffffffffffffffffffffffffffff16815260200190815260200160002060000182908060018154018082558091505060019003906000526020600020016000909190919091505550505050565b611cd7828261104a565b611d6657611cfc8173ffffffffffffffffffffffffffffffffffffffff166014612d53565b611d0a8360001c6020612d53565b604051602001611d1b929190614710565b6040516020818303038152906040526040517f08c379a0000000000000000000000000000000000000000000000000000000008152600401611d5d9190614809565b60405180910390fd5b5050565b611d748282611498565b611d99816001600085815260200190815260200160002061157890919063ffffffff16565b505050565b611da8828261304d565b611dcd816001600085815260200190815260200160002061312e90919063ffffffff16565b505050565b611dda610d89565b611e19576040517f08c379a0000000000000000000000000000000000000000000000000000000008152600401611e10906148a2565b60405180910390fd5b6000600c60006101000a81548160ff0219169083151502179055507f5db9ee0a495bf2e6ff9c91a7834c1ba4fdd244a5e8aa4e537bd38aeae4b073aa611e5d6117ff565b604051611e6a919061474a565b60405180910390a1565b6000611e7f82610da0565b9050611e8d8160008461315e565b611e98600083611807565b6001600560008373ffffffffffffffffffffffffffffffffffffffff1673ffffffffffffffffffffffffffffffffffffffff1681526020019081526020016000206000828254611ee89190614da0565b925050819055506004600083815260200190815260200160002060006101000a81549073ffffffffffffffffffffffffffffffffffffffff021916905581600073ffffffffffffffffffffffffffffffffffffffff168273ffffffffffffffffffffffffffffffffffffffff167fddf252ad1be2c89b69c2b068fc378daa952ba7f163c4a11628f55a4df523b3ef60405160405180910390a45050565b6060600f8054611f9490614ebe565b80601f0160208091040260200160405190810160405280929190818152602001828054611fc090614ebe565b801561200d5780601f10611fe25761010080835404028352916020019161200d565b820191906000526020600020905b815481529060010190602001808311611ff057829003601f168201915b5050505050905090565b61201f610d89565b1561205f576040517f08c379a0000000000000000000000000000000000000000000000000000000008152600401612056906149a2565b60405180910390fd5b6001600c60006101000a81548160ff0219169083151502179055507f62e78cea01bee320cd4e420270b5ea74000d11b0c9f74754ebdbfc544b05a2586120a36117ff565b6040516120b0919061474a565b60405180910390a1565b60006120c9836000018361316e565b60001c905092915050565b8173ffffffffffffffffffffffffffffffffffffffff168373ffffffffffffffffffffffffffffffffffffffff161415612143576040517f08c379a000000000000000000000000000000000000000000000000000000000815260040161213a90614962565b60405180910390fd5b80600760008573ffffffffffffffffffffffffffffffffffffffff1673ffffffffffffffffffffffffffffffffffffffff16815260200190815260200160002060008473ffffffffffffffffffffffffffffffffffffffff1673ffffffffffffffffffffffffffffffffffffffff16815260200190815260200160002060006101000a81548160ff0219169083151502179055508173ffffffffffffffffffffffffffffffffffffffff168373ffffffffffffffffffffffffffffffffffffffff167f17307eab39ab6107e8899845ad3d59bd9653f200f220920489ca2b5937696c318360405161223491906147d3565b60405180910390a3505050565b61224c84848461199e565b612258848484846131bf565b612297576040517f08c379a000000000000000000000000000000000000000000000000000000000815260040161228e906148e2565b60405180910390fd5b50505050565b606060008214156122e5576040518060400160405280600181526020017f30000000000000000000000000000000000000000000000000000000000000008152509050612445565b600082905060005b6000821461231757808061230090614ef0565b915050600a826123109190614d15565b91506122ed565b60008167ffffffffffffffff811115612359577f4e487b7100000000000000000000000000000000000000000000000000000000600052604160045260246000fd5b6040519080825280601f01601f19166020018201604052801561238b5781602001600182028036833780820191505090505b5090505b6000851461243e576001826123a49190614da0565b9150600a856123b39190614f39565b60306123bf9190614cbf565b60f81b8183815181106123fb577f4e487b7100000000000000000000000000000000000000000000000000000000600052603260045260246000fd5b60200101907effffffffffffffffffffffffffffffffffffffffffffffffffffffffffffff1916908160001a905350600a856124379190614d15565b945061238f565b8093505050505b919050565b600061245882600001613356565b9050919050565b600073ffffffffffffffffffffffffffffffffffffffff168273ffffffffffffffffffffffffffffffffffffffff1614156124cf576040517f08c379a00000000000000000000000000000000000000000000000000000000081526004016124c690614a22565b60405180910390fd5b6124d881611793565b15612518576040517f08c379a000000000000000000000000000000000000000000000000000000000815260040161250f90614902565b60405180910390fd5b6125246000838361315e565b6001600560008473ffffffffffffffffffffffffffffffffffffffff1673ffffffffffffffffffffffffffffffffffffffff16815260200190815260200160002060008282546125749190614cbf565b92505081905550816004600083815260200190815260200160002060006101000a81548173ffffffffffffffffffffffffffffffffffffffff021916908373ffffffffffffffffffffffffffffffffffffffff160217905550808273ffffffffffffffffffffffffffffffffffffffff16600073ffffffffffffffffffffffffffffffffffffffff167fddf252ad1be2c89b69c2b068fc378daa952ba7f163c4a11628f55a4df523b3ef60405160405180910390a45050565b60006126398383613367565b612692578260000182908060018154018082558091505060019003906000526020600020016000909190919091505582600001805490508360010160008481526020019081526020016000208190555060019050612697565b600090505b92915050565b600a80549050600b600083815260200190815260200160002081905550600a81908060018154018082558091505060019003906000526020600020016000909190919091505550565b600060016126f384610ee9565b6126fd9190614da0565b90506000600960008481526020019081526020016000205490508181146127e2576000600860008673ffffffffffffffffffffffffffffffffffffffff1673ffffffffffffffffffffffffffffffffffffffff168152602001908152602001600020600084815260200190815260200160002054905080600860008773ffffffffffffffffffffffffffffffffffffffff1673ffffffffffffffffffffffffffffffffffffffff168152602001908152602001600020600084815260200190815260200160002081905550816009600083815260200190815260200160002081905550505b6009600084815260200190815260200160002060009055600860008573ffffffffffffffffffffffffffffffffffffffff1673ffffffffffffffffffffffffffffffffffffffff16815260200190815260200160002060008381526020019081526020016000206000905550505050565b60006001600a805490506128679190614da0565b90506000600b60008481526020019081526020016000205490506000600a83815481106128bd577f4e487b7100000000000000000000000000000000000000000000000000000000600052603260045260246000fd5b9060005260206000200154905080600a8381548110612905577f4e487b7100000000000000000000000000000000000000000000000000000000600052603260045260246000fd5b906000526020600020018190555081600b600083815260200190815260200160002081905550600b600085815260200190815260200160002060009055600a80548061297a577f4e487b7100000000000000000000000000000000000000000000000000000000600052603160045260246000fd5b6001900381819060005260206000200160009055905550505050565b60006129a183610ee9565b905081600860008573ffffffffffffffffffffffffffffffffffffffff1673ffffffffffffffffffffffffffffffffffffffff168152602001908152602001600020600083815260200190815260200160002081905550806009600084815260200190815260200160002081905550505050565b60007f80ac58cd000000000000000000000000000000000000000000000000000000007bffffffffffffffffffffffffffffffffffffffffffffffffffffffff1916827bffffffffffffffffffffffffffffffffffffffffffffffffffffffff19161480612ae057507f5b5e139f000000000000000000000000000000000000000000000000000000007bffffffffffffffffffffffffffffffffffffffffffffffffffffffff1916827bffffffffffffffffffffffffffffffffffffffffffffffffffffffff1916145b80612af05750612aef8261338a565b5b9050919050565b8273ffffffffffffffffffffffffffffffffffffffff16612b1782610da0565b73ffffffffffffffffffffffffffffffffffffffff1614612b6d576040517f08c379a0000000000000000000000000000000000000000000000000000000008152600401612b6490614a62565b60405180910390fd5b600073ffffffffffffffffffffffffffffffffffffffff168273ffffffffffffffffffffffffffffffffffffffff161415612bdd576040517f08c379a0000000000000000000000000000000000000000000000000000000008152600401612bd490614942565b60405180910390fd5b612be883838361315e565b612bf3600082611807565b6001600560008573ffffffffffffffffffffffffffffffffffffffff1673ffffffffffffffffffffffffffffffffffffffff1681526020019081526020016000206000828254612c439190614da0565b925050819055506001600560008473ffffffffffffffffffffffffffffffffffffffff1673ffffffffffffffffffffffffffffffffffffffff1681526020019081526020016000206000828254612c9a9190614cbf565b92505081905550816004600083815260200190815260200160002060006101000a81548173ffffffffffffffffffffffffffffffffffffffff021916908373ffffffffffffffffffffffffffffffffffffffff160217905550808273ffffffffffffffffffffffffffffffffffffffff168473ffffffffffffffffffffffffffffffffffffffff167fddf252ad1be2c89b69c2b068fc378daa952ba7f163c4a11628f55a4df523b3ef60405160405180910390a4505050565b606060006002836002612d669190614d46565b612d709190614cbf565b67ffffffffffffffff811115612daf577f4e487b7100000000000000000000000000000000000000000000000000000000600052604160045260246000fd5b6040519080825280601f01601f191660200182016040528015612de15781602001600182028036833780820191505090505b5090507f300000000000000000000000000000000000000000000000000000000000000081600081518110612e3f577f4e487b7100000000000000000000000000000000000000000000000000000000600052603260045260246000fd5b60200101907effffffffffffffffffffffffffffffffffffffffffffffffffffffffffffff1916908160001a9053507f780000000000000000000000000000000000000000000000000000000000000081600181518110612ec9577f4e487b7100000000000000000000000000000000000000000000000000000000600052603260045260246000fd5b60200101907effffffffffffffffffffffffffffffffffffffffffffffffffffffffffffff1916908160001a90535060006001846002612f099190614d46565b612f139190614cbf565b90505b6001811115612fff577f3031323334353637383961626364656600000000000000000000000000000000600f861660108110612f7b577f4e487b7100000000000000000000000000000000000000000000000000000000600052603260045260246000fd5b1a60f81b828281518110612fb8577f4e487b7100000000000000000000000000000000000000000000000000000000600052603260045260246000fd5b60200101907effffffffffffffffffffffffffffffffffffffffffffffffffffffffffffff1916908160001a905350600485901c945080612ff890614e94565b9050612f16565b5060008414613043576040517f08c379a000000000000000000000000000000000000000000000000000000000815260040161303a90614862565b60405180910390fd5b8091505092915050565b613057828261104a565b1561312a57600080600084815260200190815260200160002060000160008373ffffffffffffffffffffffffffffffffffffffff1673ffffffffffffffffffffffffffffffffffffffff16815260200190815260200160002060006101000a81548160ff0219169083151502179055506130cf6117ff565b73ffffffffffffffffffffffffffffffffffffffff168173ffffffffffffffffffffffffffffffffffffffff16837ff6391f5c32d9c69d2a47ea670b442974b53935d1edc7fd64eb21e047a839171b60405160405180910390a45b5050565b6000613156836000018373ffffffffffffffffffffffffffffffffffffffff1660001b613404565b905092915050565b6131698383836115a8565b505050565b60008260000182815481106131ac577f4e487b7100000000000000000000000000000000000000000000000000000000600052603260045260246000fd5b9060005260206000200154905092915050565b60006131e08473ffffffffffffffffffffffffffffffffffffffff1661358a565b15613349578373ffffffffffffffffffffffffffffffffffffffff1663150b7a026132096117ff565b8786866040518563ffffffff1660e01b815260040161322b9493929190614765565b602060405180830381600087803b15801561324557600080fd5b505af192505050801561327657506040513d601f19601f820116820180604052508101906132739190613ae3565b60015b6132f9573d80600081146132a6576040519150601f19603f3d011682016040523d82523d6000602084013e6132ab565b606091505b506000815114156132f1576040517f08c379a00000000000000000000000000000000000000000000000000000000081526004016132e8906148e2565b60405180910390fd5b805181602001fd5b63150b7a0260e01b7bffffffffffffffffffffffffffffffffffffffffffffffffffffffff1916817bffffffffffffffffffffffffffffffffffffffffffffffffffffffff19161491505061334e565b600190505b949350505050565b600081600001805490509050919050565b600080836001016000848152602001908152602001600020541415905092915050565b60007f5a05180f000000000000000000000000000000000000000000000000000000007bffffffffffffffffffffffffffffffffffffffffffffffffffffffff1916827bffffffffffffffffffffffffffffffffffffffffffffffffffffffff191614806133fd57506133fc8261359d565b5b9050919050565b6000808360010160008481526020019081526020016000205490506000811461357e5760006001826134369190614da0565b905060006001866000018054905061344e9190614da0565b9050818114613509576000866000018281548110613495577f4e487b7100000000000000000000000000000000000000000000000000000000600052603260045260246000fd5b90600052602060002001549050808760000184815481106134df577f4e487b7100000000000000000000000000000000000000000000000000000000600052603260045260246000fd5b90600052602060002001819055508387600101600083815260200190815260200160002081905550505b85600001805480613543577f4e487b7100000000000000000000000000000000000000000000000000000000600052603160045260246000fd5b600190038181906000526020600020016000905590558560010160008681526020019081526020016000206000905560019350505050613584565b60009150505b92915050565b600080823b905060008111915050919050565b60007f7965db0b000000000000000000000000000000000000000000000000000000007bffffffffffffffffffffffffffffffffffffffffffffffffffffffff1916827bffffffffffffffffffffffffffffffffffffffffffffffffffffffff19161480613610575061360f82613617565b5b9050919050565b60007f01ffc9a7000000000000000000000000000000000000000000000000000000007bffffffffffffffffffffffffffffffffffffffffffffffffffffffff1916827bffffffffffffffffffffffffffffffffffffffffffffffffffffffff1916149050919050565b82805461368d90614ebe565b90600052602060002090601f0160209004810192826136af57600085556136f6565b82601f106136c857805160ff19168380011785556136f6565b828001600101855582156136f6579182015b828111156136f55782518255916020019190600101906136da565b5b5090506137039190613707565b5090565b5b80821115613720576000816000905550600101613708565b5090565b600061373761373284614bce565b614b9d565b90508281526020810184848401111561374f57600080fd5b61375a848285614e52565b509392505050565b600061377561377084614bfe565b614b9d565b90508281526020810184848401111561378d57600080fd5b613798848285614e52565b509392505050565b6000813590506137af81615037565b92915050565b6000813590506137c48161504e565b92915050565b6000813590506137d981615065565b92915050565b6000813590506137ee8161507c565b92915050565b6000815190506138038161507c565b92915050565b600082601f83011261381a57600080fd5b813561382a848260208601613724565b91505092915050565b600082601f83011261384457600080fd5b8135613854848260208601613762565b91505092915050565b60008135905061386c81615093565b92915050565b60006020828403121561388457600080fd5b6000613892848285016137a0565b91505092915050565b600080604083850312156138ae57600080fd5b60006138bc858286016137a0565b92505060206138cd858286016137a0565b9150509250929050565b6000806000606084860312156138ec57600080fd5b60006138fa868287016137a0565b935050602061390b868287016137a0565b925050604061391c8682870161385d565b9150509250925092565b6000806000806080858703121561393c57600080fd5b600061394a878288016137a0565b945050602061395b878288016137a0565b935050604061396c8782880161385d565b925050606085013567ffffffffffffffff81111561398957600080fd5b61399587828801613809565b91505092959194509250565b600080604083850312156139b457600080fd5b60006139c2858286016137a0565b92505060206139d3858286016137b5565b9150509250929050565b600080604083850312156139f057600080fd5b60006139fe858286016137a0565b9250506020613a0f8582860161385d565b9150509250929050565b600060208284031215613a2b57600080fd5b6000613a39848285016137ca565b91505092915050565b60008060408385031215613a5557600080fd5b6000613a63858286016137ca565b9250506020613a74858286016137a0565b9150509250929050565b60008060408385031215613a9157600080fd5b6000613a9f858286016137ca565b9250506020613ab08582860161385d565b9150509250929050565b600060208284031215613acc57600080fd5b6000613ada848285016137df565b91505092915050565b600060208284031215613af557600080fd5b6000613b03848285016137f4565b91505092915050565b600060208284031215613b1e57600080fd5b600082013567ffffffffffffffff811115613b3857600080fd5b613b4484828501613833565b91505092915050565b600060208284031215613b5f57600080fd5b6000613b6d8482850161385d565b91505092915050565b6000613b8283836146ce565b60208301905092915050565b613b9781614dd4565b82525050565b6000613ba882614c53565b613bb28185614c81565b9350613bbd83614c2e565b8060005b83811015613bee578151613bd58882613b76565b9750613be083614c74565b925050600181019050613bc1565b5085935050505092915050565b613c0481614de6565b82525050565b613c1381614df2565b82525050565b6000613c2482614c5e565b613c2e8185614c92565b9350613c3e818560208601614e61565b613c4781615026565b840191505092915050565b6000613c5d82614c69565b613c678185614ca3565b9350613c77818560208601614e61565b613c8081615026565b840191505092915050565b6000613c9682614c69565b613ca08185614cb4565b9350613cb0818560208601614e61565b80840191505092915050565b60008154613cc981614ebe565b613cd38186614ca3565b94506001821660008114613cee5760018114613d0057613d33565b60ff1983168652602086019350613d33565b613d0985614c3e565b60005b83811015613d2b57815481890152600182019150602081019050613d0c565b808801955050505b50505092915050565b6000613d49602083614ca3565b91507f537472696e67733a20686578206c656e67746820696e73756666696369656e746000830152602082019050919050565b6000613d89602b83614ca3565b91507f4552433732315061757361626c653a20746f6b656e207472616e73666572207760008301527f68696c65207061757365640000000000000000000000000000000000000000006020830152604082019050919050565b6000613def601483614ca3565b91507f5061757361626c653a206e6f74207061757365640000000000000000000000006000830152602082019050919050565b6000613e2f602b83614ca3565b91507f455243373231456e756d657261626c653a206f776e657220696e646578206f7560008301527f74206f6620626f756e64730000000000000000000000000000000000000000006020830152604082019050919050565b6000613e95603283614ca3565b91507f4552433732313a207472616e7366657220746f206e6f6e20455243373231526560008301527f63656976657220696d706c656d656e74657200000000000000000000000000006020830152604082019050919050565b6000613efb601c83614ca3565b91507f4552433732313a20746f6b656e20616c7265616479206d696e746564000000006000830152602082019050919050565b6000613f3b603e83614ca3565b91507f4552433732315072657365744d696e7465725061757365724175746f49643a2060008301527f6d75737420686176652070617573657220726f6c6520746f20706175736500006020830152604082019050919050565b6000613fa1602483614ca3565b91507f4552433732313a207472616e7366657220746f20746865207a65726f2061646460008301527f72657373000000000000000000000000000000000000000000000000000000006020830152604082019050919050565b6000614007601983614ca3565b91507f4552433732313a20617070726f766520746f2063616c6c6572000000000000006000830152602082019050919050565b6000614047602c83614ca3565b91507f4552433732313a206f70657261746f7220717565727920666f72206e6f6e657860008301527f697374656e7420746f6b656e00000000000000000000000000000000000000006020830152604082019050919050565b60006140ad601083614ca3565b91507f5061757361626c653a20706175736564000000000000000000000000000000006000830152602082019050919050565b60006140ed603883614ca3565b91507f4552433732313a20617070726f76652063616c6c6572206973206e6f74206f7760008301527f6e6572206e6f7220617070726f76656420666f7220616c6c00000000000000006020830152604082019050919050565b6000614153602a83614ca3565b91507f4552433732313a2062616c616e636520717565727920666f7220746865207a6560008301527f726f2061646472657373000000000000000000000000000000000000000000006020830152604082019050919050565b60006141b9602983614ca3565b91507f4552433732313a206f776e657220717565727920666f72206e6f6e657869737460008301527f656e7420746f6b656e00000000000000000000000000000000000000000000006020830152604082019050919050565b600061421f602083614ca3565b91507f4552433732313a206d696e7420746f20746865207a65726f20616464726573736000830152602082019050919050565b600061425f602c83614ca3565b91507f4552433732313a20617070726f76656420717565727920666f72206e6f6e657860008301527f697374656e7420746f6b656e00000000000000000000000000000000000000006020830152604082019050919050565b60006142c5602983614ca3565b91507f4552433732313a207472616e73666572206f6620746f6b656e2074686174206960008301527f73206e6f74206f776e00000000000000000000000000000000000000000000006020830152604082019050919050565b600061432b602f83614ca3565b91507f4552433732314d657461646174613a2055524920717565727920666f72206e6f60008301527f6e6578697374656e7420746f6b656e00000000000000000000000000000000006020830152604082019050919050565b6000614391602183614ca3565b91507f4552433732313a20617070726f76616c20746f2063757272656e74206f776e6560008301527f72000000000000000000000000000000000000000000000000000000000000006020830152604082019050919050565b60006143f7603183614ca3565b91507f4552433732313a207472616e736665722063616c6c6572206973206e6f74206f60008301527f776e6572206e6f7220617070726f7665640000000000000000000000000000006020830152604082019050919050565b600061445d602c83614ca3565b91507f455243373231456e756d657261626c653a20676c6f62616c20696e646578206f60008301527f7574206f6620626f756e647300000000000000000000000000000000000000006020830152604082019050919050565b60006144c3601783614cb4565b91507f416363657373436f6e74726f6c3a206163636f756e74200000000000000000006000830152601782019050919050565b6000614503603d83614ca3565b91507f4552433732315072657365744d696e7465725061757365724175746f49643a2060008301527f6d7573742068617665206d696e74657220726f6c6520746f206d696e740000006020830152604082019050919050565b6000614569603083614ca3565b91507f4552433732314275726e61626c653a2063616c6c6572206973206e6f74206f7760008301527f6e6572206e6f7220617070726f766564000000000000000000000000000000006020830152604082019050919050565b60006145cf604083614ca3565b91507f4552433732315072657365744d696e7465725061757365724175746f49643a2060008301527f6d75737420686176652070617573657220726f6c6520746f20756e70617573656020830152604082019050919050565b6000614635601183614cb4565b91507f206973206d697373696e6720726f6c65200000000000000000000000000000006000830152601182019050919050565b6000614675602f83614ca3565b91507f416363657373436f6e74726f6c3a2063616e206f6e6c792072656e6f756e636560008301527f20726f6c657320666f722073656c6600000000000000000000000000000000006020830152604082019050919050565b6146d781614e48565b82525050565b6146e681614e48565b82525050565b60006146f88285613c8b565b91506147048284613c8b565b91508190509392505050565b600061471b826144b6565b91506147278285613c8b565b915061473282614628565b915061473e8284613c8b565b91508190509392505050565b600060208201905061475f6000830184613b8e565b92915050565b600060808201905061477a6000830187613b8e565b6147876020830186613b8e565b61479460408301856146dd565b81810360608301526147a68184613c19565b905095945050505050565b600060208201905081810360008301526147cb8184613b9d565b905092915050565b60006020820190506147e86000830184613bfb565b92915050565b60006020820190506148036000830184613c0a565b92915050565b600060208201905081810360008301526148238184613c52565b905092915050565b600060408201905081810360008301526148458185613cbc565b905081810360208301526148598184613c52565b90509392505050565b6000602082019050818103600083015261487b81613d3c565b9050919050565b6000602082019050818103600083015261489b81613d7c565b9050919050565b600060208201905081810360008301526148bb81613de2565b9050919050565b600060208201905081810360008301526148db81613e22565b9050919050565b600060208201905081810360008301526148fb81613e88565b9050919050565b6000602082019050818103600083015261491b81613eee565b9050919050565b6000602082019050818103600083015261493b81613f2e565b9050919050565b6000602082019050818103600083015261495b81613f94565b9050919050565b6000602082019050818103600083015261497b81613ffa565b9050919050565b6000602082019050818103600083015261499b8161403a565b9050919050565b600060208201905081810360008301526149bb816140a0565b9050919050565b600060208201905081810360008301526149db816140e0565b9050919050565b600060208201905081810360008301526149fb81614146565b9050919050565b60006020820190508181036000830152614a1b816141ac565b9050919050565b60006020820190508181036000830152614a3b81614212565b9050919050565b60006020820190508181036000830152614a5b81614252565b9050919050565b60006020820190508181036000830152614a7b816142b8565b9050919050565b60006020820190508181036000830152614a9b8161431e565b9050919050565b60006020820190508181036000830152614abb81614384565b9050919050565b60006020820190508181036000830152614adb816143ea565b9050919050565b60006020820190508181036000830152614afb81614450565b9050919050565b60006020820190508181036000830152614b1b816144f6565b9050919050565b60006020820190508181036000830152614b3b8161455c565b9050919050565b60006020820190508181036000830152614b5b816145c2565b9050919050565b60006020820190508181036000830152614b7b81614668565b9050919050565b6000602082019050614b9760008301846146dd565b92915050565b6000604051905081810181811067ffffffffffffffff82111715614bc457614bc3614ff7565b5b8060405250919050565b600067ffffffffffffffff821115614be957614be8614ff7565b5b601f19601f8301169050602081019050919050565b600067ffffffffffffffff821115614c1957614c18614ff7565b5b601f19601f8301169050602081019050919050565b6000819050602082019050919050565b60008190508160005260206000209050919050565b600081519050919050565b600081519050919050565b600081519050919050565b6000602082019050919050565b600082825260208201905092915050565b600082825260208201905092915050565b600082825260208201905092915050565b600081905092915050565b6000614cca82614e48565b9150614cd583614e48565b9250827fffffffffffffffffffffffffffffffffffffffffffffffffffffffffffffffff03821115614d0a57614d09614f6a565b5b828201905092915050565b6000614d2082614e48565b9150614d2b83614e48565b925082614d3b57614d3a614f99565b5b828204905092915050565b6000614d5182614e48565b9150614d5c83614e48565b9250817fffffffffffffffffffffffffffffffffffffffffffffffffffffffffffffffff0483118215151615614d9557614d94614f6a565b5b828202905092915050565b6000614dab82614e48565b9150614db683614e48565b925082821015614dc957614dc8614f6a565b5b828203905092915050565b6000614ddf82614e28565b9050919050565b60008115159050919050565b6000819050919050565b60007fffffffff0000000000000000000000000000000000000000000000000000000082169050919050565b600073ffffffffffffffffffffffffffffffffffffffff82169050919050565b6000819050919050565b82818337600083830152505050565b60005b83811015614e7f578082015181840152602081019050614e64565b83811115614e8e576000848401525b50505050565b6000614e9f82614e48565b91506000821415614eb357614eb2614f6a565b5b600182039050919050565b60006002820490506001821680614ed657607f821691505b60208210811415614eea57614ee9614fc8565b5b50919050565b6000614efb82614e48565b91507fffffffffffffffffffffffffffffffffffffffffffffffffffffffffffffffff821415614f2e57614f2d614f6a565b5b600182019050919050565b6000614f4482614e48565b9150614f4f83614e48565b925082614f5f57614f5e614f99565b5b828206905092915050565b7f4e487b7100000000000000000000000000000000000000000000000000000000600052601160045260246000fd5b7f4e487b7100000000000000000000000000000000000000000000000000000000600052601260045260246000fd5b7f4e487b7100000000000000000000000000000000000000000000000000000000600052602260045260246000fd5b7f4e487b7100000000000000000000000000000000000000000000000000000000600052604160045260246000fd5b6000601f19601f8301169050919050565b61504081614dd4565b811461504b57600080fd5b50565b61505781614de6565b811461506257600080fd5b50565b61506e81614df2565b811461507957600080fd5b50565b61508581614dfc565b811461509057600080fd5b50565b61509c81614e48565b81146150a757600080fd5b5056fea2646970667358221220240bc9ee20e7950d8eea252fdd3aa3bf555362d909567a94d6112b00ef78e73164736f6c63430008000033",
  "immutableReferences": {},
  "source": "// SPDX-License-Identifier: MIT\r\npragma solidity ^0.8.0;\r\n\r\nimport \"@openzeppelin/contracts/token/ERC721/presets/ERC721PresetMinterPauserAutoId.sol\";\r\nimport \"@openzeppelin/contracts/utils/Counters.sol\";\r\n\r\ncontract CattleiaERC721 is ERC721PresetMinterPauserAutoId {\r\n    using Counters for Counters.Counter;\r\n\r\n    string private _baseUri;\r\n\r\n    Counters.Counter private _track;\r\n\r\n    struct Track {\r\n        uint256[] tokens;\r\n    }\r\n\r\n    mapping(address => Track) private _totals;\r\n\r\n    event BaseURIChanged(string _old, string _new);\r\n\r\n    constructor(\r\n        string memory name_,\r\n        string memory symbol_,\r\n        string memory baseURI_,\r\n        uint256 supply_\r\n    ) ERC721PresetMinterPauserAutoId(name_, symbol_, baseURI_) {\r\n        _baseUri = baseURI_;\r\n        for (uint256 i = 0; i < supply_; i++) {\r\n            mint(msg.sender);\r\n        }\r\n    }\r\n\r\n    function changeBaseURI(string memory _newURI) public {\r\n        require(hasRole(DEFAULT_ADMIN_ROLE, msg.sender));\r\n        emit BaseURIChanged(_baseUri, _newURI);\r\n        _baseUri = _newURI;\r\n    }\r\n\r\n    function baseURI() public view returns (string memory) {\r\n        return _baseURI();\r\n    }\r\n\r\n    function tokensOf(address _owner) public view returns (uint256[] memory) {\r\n        return _totals[_owner].tokens;\r\n    }\r\n\r\n    function transfer(address _to, uint256 _tokenId) public {\r\n        require(ownerOf(_tokenId) == msg.sender);\r\n        _transfer(msg.sender, _to, _tokenId);\r\n    }\r\n\r\n    function _transfer(\r\n        address _from,\r\n        address _to,\r\n        uint256 _tokenId\r\n    ) internal override {\r\n        super._transfer(_from, _to, _tokenId);\r\n\r\n        uint256 i = 0;\r\n        while (_totals[_from].tokens[i] != _tokenId) {\r\n            i++;\r\n        }\r\n\r\n        while (i < _totals[_from].tokens.length - 1) {\r\n            _totals[_from].tokens[i] = _totals[_from].tokens[i + 1];\r\n            i++;\r\n        }\r\n        _totals[_from].tokens.pop();\r\n        _totals[_to].tokens.push(_tokenId);\r\n    }\r\n\r\n    function mint(address _to) public override {\r\n        super.mint(_to);\r\n        _totals[_to].tokens.push(_track.current());\r\n        _track.increment();\r\n    }\r\n\r\n    function _baseURI() internal view override returns (string memory) {\r\n        return _baseUri;\r\n    }\r\n}\r\n",
  "sourcePath": "C:\\Users\\aku\\Desktop\\cattleia\\packages\\contracts\\code\\CattleiaERC721.sol",
  "compiler": {
    "name": "solc",
    "version": "0.8.0+commit.c7dfd78e.Emscripten.clang"
  },
  "schemaVersion": "3.4.3",
  "updatedAt": "2021-12-15T18:51:03.739Z",
  "devdoc": {
    "kind": "dev",
    "methods": {
      "approve(address,uint256)": {
        "details": "See {IERC721-approve}."
      },
      "balanceOf(address)": {
        "details": "See {IERC721-balanceOf}."
      },
      "burn(uint256)": {
        "details": "Burns `tokenId`. See {ERC721-_burn}. Requirements: - The caller must own `tokenId` or be an approved operator."
      },
      "getApproved(uint256)": {
        "details": "See {IERC721-getApproved}."
      },
      "getRoleAdmin(bytes32)": {
        "details": "Returns the admin role that controls `role`. See {grantRole} and {revokeRole}. To change a role's admin, use {_setRoleAdmin}."
      },
      "getRoleMember(bytes32,uint256)": {
        "details": "Returns one of the accounts that have `role`. `index` must be a value between 0 and {getRoleMemberCount}, non-inclusive. Role bearers are not sorted in any particular way, and their ordering may change at any point. WARNING: When using {getRoleMember} and {getRoleMemberCount}, make sure you perform all queries on the same block. See the following https://forum.openzeppelin.com/t/iterating-over-elements-on-enumerableset-in-openzeppelin-contracts/2296[forum post] for more information."
      },
      "getRoleMemberCount(bytes32)": {
        "details": "Returns the number of accounts that have `role`. Can be used together with {getRoleMember} to enumerate all bearers of a role."
      },
      "grantRole(bytes32,address)": {
        "details": "Grants `role` to `account`. If `account` had not been already granted `role`, emits a {RoleGranted} event. Requirements: - the caller must have ``role``'s admin role."
      },
      "hasRole(bytes32,address)": {
        "details": "Returns `true` if `account` has been granted `role`."
      },
      "isApprovedForAll(address,address)": {
        "details": "See {IERC721-isApprovedForAll}."
      },
      "name()": {
        "details": "See {IERC721Metadata-name}."
      },
      "ownerOf(uint256)": {
        "details": "See {IERC721-ownerOf}."
      },
      "pause()": {
        "details": "Pauses all token transfers. See {ERC721Pausable} and {Pausable-_pause}. Requirements: - the caller must have the `PAUSER_ROLE`."
      },
      "paused()": {
        "details": "Returns true if the contract is paused, and false otherwise."
      },
      "renounceRole(bytes32,address)": {
        "details": "Revokes `role` from the calling account. Roles are often managed via {grantRole} and {revokeRole}: this function's purpose is to provide a mechanism for accounts to lose their privileges if they are compromised (such as when a trusted device is misplaced). If the calling account had been revoked `role`, emits a {RoleRevoked} event. Requirements: - the caller must be `account`."
      },
      "revokeRole(bytes32,address)": {
        "details": "Revokes `role` from `account`. If `account` had been granted `role`, emits a {RoleRevoked} event. Requirements: - the caller must have ``role``'s admin role."
      },
      "safeTransferFrom(address,address,uint256)": {
        "details": "See {IERC721-safeTransferFrom}."
      },
      "safeTransferFrom(address,address,uint256,bytes)": {
        "details": "See {IERC721-safeTransferFrom}."
      },
      "setApprovalForAll(address,bool)": {
        "details": "See {IERC721-setApprovalForAll}."
      },
      "supportsInterface(bytes4)": {
        "details": "See {IERC165-supportsInterface}."
      },
      "symbol()": {
        "details": "See {IERC721Metadata-symbol}."
      },
      "tokenByIndex(uint256)": {
        "details": "See {IERC721Enumerable-tokenByIndex}."
      },
      "tokenOfOwnerByIndex(address,uint256)": {
        "details": "See {IERC721Enumerable-tokenOfOwnerByIndex}."
      },
      "tokenURI(uint256)": {
        "details": "See {IERC721Metadata-tokenURI}."
      },
      "totalSupply()": {
        "details": "See {IERC721Enumerable-totalSupply}."
      },
      "transferFrom(address,address,uint256)": {
        "details": "See {IERC721-transferFrom}."
      },
      "unpause()": {
        "details": "Unpauses all token transfers. See {ERC721Pausable} and {Pausable-_unpause}. Requirements: - the caller must have the `PAUSER_ROLE`."
      }
    },
    "version": 1
  },
  "userdoc": {
    "kind": "user",
    "methods": {},
    "version": 1
  }
}